:100000000C9446000C945D000C945D000C945D0013
:100010000C945D000C945D000C945D000C945D00EC
:100020000C945D000C945D000C945D000C945D00DC
:100030000C945D000C945D000C945D000C945D00CC
:100040000C945D000C945D000C945D000C945D00BC
:100050000C945D000C945D000C945D000C945D00AC
:100060000C945D000C945D000C945D000C945D009C
:100070000C945D000C945D000C945D000C945D008C
:100080000C945D000C945D000C945D0011241FBE67
:10009000CFEFD0E1DEBFCDBF11E0A0E0B1E0ECE5F5
:1000A000F1E000E00BBF02C007900D92A430B10751
:1000B000D9F70E945F000C94AC000C940000BC9A2D
:1000C000BD9ABF9ABE9A8998919A8898909AC59A33
:1000D000C69AC498C79880B3827080BB90B3917061
:1000E00090BB2FEF33EC49E0215030404040E1F726
:1000F00000C00000911117C0C598C6988FEF93ED0E
:1001000020E3815090402040E1F700C00000C59AF4
:100110003FEF43ED80E3315040408040E1F700C0C5
:100120000000C69AD8CF8111D6CFC598C6989FEF48
:1001300023ED30E3915020403040E1F700C0000053
:10014000C69A4FEF83ED90E3415080409040E1F735
:0C01500000C00000C59ABFCFF894FFCF9C
:04015C00C800E803EC
:00000001FF
