S01D0000427573696E65737320436172642054657374696E672E7372656323
S11300007850002011720000097300000973000089
S113001000000000000000000000000000000000DC
S11300200000000000000000000000000973000050
S113003000000000000000000973000009730000C4
S1130040097300000973000009730000D115000052
S1130050A160000009730000097300001D56000030
S1130060097300000973000009730000097300009C
S1130070097300000973000009730000097300008C
S11300800973000009730000E5110000F911000074
S11300900D12000021120000351200000D0B0000AB
S11300A0097300000973000009730000097300005C
S11300B00000000010B5064C2378002B07D1054B37
S11300C0002B02D0044800E000BF0123237010BDC0
S11300D070000020000000001CAC000008B5084BB4
S11300E0002B03D00748084900E000BF0748036815
S11300F0002B00D108BD064B002BFBD09847F9E735
S1130100000000001CAC0000740000201CAC0000C7
S11301100000000080B582B000AF78607B680022E8
S11301201A70BD4602B080BD80B582B000AF021C1B
S11301303960FB1D1A70FB1D1B78012B0AD0022BA2
S11301400FD0002B14D10E4B0D4A91693A680A4323
S11301509A610FE00A4B0A4AD1693A680A43DA61A4
S113016008E0074B064A116A3A680A431A6201E03A
S1130170172300E00023181CBD4602B080BDC04612
S11301800004004080B582B000AF78607B688022B4
S11301901A707B6800225A707B6801229A707B680F
S11301A00022DA70BD4602B080BDC04680B582B080
S11301B000AF021CFB1D1A70FB1D1B78002B02D024
S11301C0012B07D00DE0084B074A126C02210A43A9
S11301D01A6406E0044B044A126C04210A431A64AC
S11301E0C046BD4602B080BD0008004080B584B062
S11301F000AF78607B681B68FB60FB685B7EDBB2EA
S1130200DBB25BB2002B01DA012300E00023181CEF
S1130210BD4604B080BDC04680B582B000AF7860F2
S11302207B6800221A707B6800225A707B68002267
S11302305A807B6800221A717B6800221A767B68D8
S113024000221A627B680022DA617B6800229A60CD
S11302507B6800221A737B68C0225201DA817B68B2
S113026000221A747B6800225A747B6800229A74F4
S11302707B680022DA747B6800221A757B682A2264
S1130280002199547B6800225A757B6800229A7574
S11302907B682422002199547B680022DA847B68DD
S11302A000221A857B680022DA757B682B220021E4
S11302B099547B682C2200219954BD4602B080BD1C
S11302C080B598B000AF78600C23FA18154B111C58
S11302D01A1C5023081C111C1A1C134B9847134B4F
S11302E0FB657B68132B1AD80C23FB187A689200E1
S11302F0D358FB650823FB18181C0D4B984708239B
S1130300FB1800229A700823FB1801221A70FB6D57
S1130310DAB20823FB18101C191C064B9847BD467B
S113032018B080BD649E0000419E0000FFFF0000E5
S11303308501000089710000F0B589B000AF7860D4
S113034039601F23FB1800221A701023BB61172386
S1130350FB1800221A707B681B683B610C23FB1896
S1130360181CC14B98473B681A780C23FB181A7069
S11303700C23FB181E20191CBC4B98471E20BC4B99
S113038098473B682C229B5C002B40D01623FB181B
S11303903A682B21525C1A703B68197B1523FB18B1
S11303A01622BA1812788A181A703B682C22995CA3
S11303B00F23FB181522BA1812788A181A7018E03D
S11303C01623FB181B780F2213403A68127B9B18E4
S11303D0181CA84B98471523FB181A781523FB18EB
S11303E001321A701623FB181A781623FB180132EF
S11303F01A701523FA180F23FB1812781B789A42E7
S1130400DED33B68DB89181C9A4B984709E03B68AC
S11304101B7B181C974B98473B68DB89181C954B32
S113042098473B685B7D9B00DAB23B691A703B6876
S11304309B7DDB01DAB23B685B78DBB21343DBB252
S1130440DAB23B695A703B681B79342B46D89A0060
S1130450894BD3181B689F461F23FB183A68527CAC
S11304601A701723FB183A68127C1A701023BB61A8
S113047036E01F23FB1801221A701723FB180222EF
S11304801A701023BB612BE01F23FB1802221A7081
S11304901723FB1804221A701023BB6120E01F23CA
S11304A0FB1801221A701723FB1806221A70102356
S11304B0BB6115E01F23FB1800221A701723FB18D9
S11304C008221A701023BB610AE03023BB6107E0E5
S11304D02023BB6104E00023BB6101E01723A3E1F7
S11304E01F23FB181B781B01DBB270221340DAB206
S11304F01723FB181B781343DAB23B699A703B68E5
S1130500DB7D3F2B01D917238EE13B68DA7D3B6904
S1130510DA70C0467B68181C584B9847031EF9D103
S11305203B685A88BB699BB213439AB23B68242147
S11305305B5C9BB2DB009BB213439AB23B681B7DAE
S11305409BB29B009BB213439AB23B689B7C9BB2C9
S1130550DB189BB213439AB23B68DB7C9BB2134318
S11305609AB23B699A803B681B7E002B00D1BAE0AB
S1130570BB69102B00D18FE002D8002B4DD0B2E024
S1130580202B23D0302B00D0ADE03B68DB7C002B4C
S113059011D03B68DB697F2B0BDC3B68DB69803364
S11305A007DB3B681B6A7F2B03DC3B681B6A8033D9
S11305B001DA172338E13B68DB69FF2B03DC3B6876
S11305C01B6AFF2B01DD17232EE18CE03B68DB7CEB
S11305D0002B15D03B68DB69294A93420EDC3B684B
S11305E0DB69284A934209DB3B681B6A244A93422D
S11305F004DC3B681B6A234A934201DA172313E1A4
S11306003B68DB69204A934204DC3B681B6A1E4A50
S1130610934201DD172307E165E03B68DB7C002B97
S113062015D03B68DB69194A93420EDC3B68DB69F1
S1130630174A934209DB3B681B6A144A934204DC61
S11306403B681B6A124A934201DA1723ECE03B68C9
S1130650DB69104A934204DC3B681B6A0D4A9342EF
S113066001DD1723E0E03EE0150100009D6E00006F
S1130670E16E0000C1020000B49E0000ED01000024
S1130680FF01000000FEFFFFFF030000FF07000062
S113069000F8FFFFFF0F00003B68DB7C002B15D048
S11306A03B68DB69624A93420EDC3B68DB69614A62
S11306B0934209DB3B681B6A5D4A934204DC3B6856
S11306C01B6A5C4A934201DA1723ADE03B68DB699D
S11306D0594A934204DC3B681B6A574A934201DD42
S11306E01723A1E0C046C0467B68181C534B9847AB
S11306F0031EF9D13B681A7E3B691A72C0467B68B7
S1130700181C4E4B9847031EF9D13B68DB699AB21B
S11307103B699A83C0467B68181C484B9847031E64
S1130720F9D13B681B6A9AB23B691A841423FB18FB
S11307303A682C21525C1A701423FB181B78002B86
S113074006D01423FB181A781423FB18013A1A70E4
S11307501423FB181B780F2B04D83B682B229B5CBB
S11307600F2B01D917235FE0C0467B68181C334B5D
S11307709847031EF9D13B689B683A682B21525C69
S1130780120513431422BA181278120413433A6858
S1130790D28913433A68127B1A433B691A613B6856
S11307A02A229A5C3B691A753B690F229A753B6849
S11307B024229B5C002B1DD03B68DB8C204A934297
S11307C001D9172330E03B68DA8C3B699A843B6893
S11307D01B8D1BB21B4A934205DC3B681B8D1BB26D
S11307E0194A934201DA17231EE03B681B8D9AB223
S11307F03B69DA84154B1B68DB089BB21B029AB277
S1130800E023DB0013409AB2114B5C681B68610162
S1130810DD0E0D43E60EABB2FF210B409BB213433A
S11308209AB23B691A850023181CBD4609B0F0BD75
S1130830FF7F00000080FFFFFFFF0000ED010000CC
S1130840FF0F0000FF07000000F8FFFF2460800096
S11308502060800080B586B000AFF860B9607A602F
S1130860FB68BA681A6080235B020220191C324BB1
S11308709847BB681B78DBB21A1C0123134001D0D4
S1130880052355E0BB681B78DBB21A1C0223134016
S113089001D01C234CE07B685A78FB681A71FB6812
S11308A01B79002B02D10120244B98471723FB18F6
S11308B000221A700EE01723FB181A78FB68023224
S11308C092000021D1501723FB181A781723FB1824
S11308D001321A701723FB181B78022BEBD9FB6823
S11308E000229A76FB680022DA76FB6800221A83DB
S11308F0FB6800221A77124BFA681A607B682A2276
S11309009B5C002B0AD17B681B7D01225340DBB228
S1130910002B03D0FB6801225A7702E0FB68002217
S11309205A77FA687B68101C191C064B9847031CFD
S1130930181CBD4606B080BD29010000AD010000B1
S11309406C0100203903000080B584B000AF7860EA
S11309507B681B68FB60FB685B7EDBB2DBB25BB26F
S1130960002B01DA012300E00023181CBD4604B06B
S113097080BDC04680B584B000AF78607B681B68DA
S1130980FB60C0467B68181C0A4B9847031EF9D1CC
S1130990FB681B7BDBB202221343DAB2FB681A73D7
S11309A0C0467B68181C034B9847031EF9D1BD460B
S11309B004B080BD4909000080B584B000AF786000
S11309C00A1CFB1C1A707B681B68FB60FB68FA1C22
S11309D012789A75BD4604B080BDC04680B584B017
S11309E000AF021CFB1D1A70FB1D1A78434B9200CA
S11309F0D358FB60FB681B681B7EDBB2BB60BB6823
S1130A000122134045D0FB68DB7E1A1C01231340EE
S1130A103FD0FB689B7E1A1C0123134039D0FB682E
S1130A201B6801221A76C046FB68181C344B984791
S1130A30031EF9D1FB685B69991CFA685161FA6875
S1130A401268528B92B21A80FB681B8B9BB2013BDB
S1130A509BB2FA68191C1183002B08D0FB685B7FDA
S1130A60002B16D0FB68181C264B984711E0FB6836
S1130A701B7FDBB2052B0CD1FB6800221A77FB68C5
S1130A80181C0121204B9847FB689B68FA68101CCE
S1130A909847BB680422134014D0FB681B680422E7
S1130AA01A76FB68DB7E1A1C022313400AD0FB680B
S1130AB09B7E1A1C0223134004D0FB68DB68FA688F
S1130AC0101C9847BB680222134014D0FB681B68B3
S1130AD002221A76FB68DB7E1A1C042313400AD018
S1130AE0FB689B7E1A1C0423134004D0FB681B691B
S1130AF0FA68101C9847BD4604B080BD6C01002004
S1130B004909000075090000B909000080B500AF6B
S1130B100020024B9847BD4680BDC046DD09000059
S1130B2080B582B000AF78607B6800221A70BD4641
S1130B3002B080BD80B582B000AF021C3960FB1DDD
S1130B401A70FB1D1B78012B0AD0022B0FD0002B2F
S1130B5014D10E4B0D4A91693A680A439A610FE029
S1130B600A4B0A4AD1693A680A43DA6108E0074B3A
S1130B70064A116A3A680A431A6201E0172300E040
S1130B800023181CBD4602B080BDC04600040040CE
S1130B9080B582B000AF78607B6880221A707B6871
S1130BA000225A707B6801229A707B680022DA70F6
S1130BB0BD4602B080BDC04680B584B000AF786049
S1130BC07B681B68FB60FB68DB7BDBB21A1C802341
S1130BD013405A1E9341DBB2181CBD4604B080BDBD
S1130BE080B584B000AF78607B681B68FB60C0464A
S1130BF07B68181C074B9847031EF9D1FB681B88B8
S1130C009BB2022293439AB2FB681A80BD4604B099
S1130C1080BDC046B90B000090B589B000AF7860C4
S1130C200823FB180E4A13CA13C303CA03C30023C1
S1130C30FB610DE00823FB18FA699200D2587B6827
S1130C409A4202D1FB69DBB206E0FB690133FB6126
S1130C50FB69042BEED90023181CBD4609B090BDD6
S1130C60889F000090B58DB000AFF860B9607A60DD
S1130C702E23FB1800221A802D23FB1800221A7041
S1130C802C23FB1800221A702923FC18BB68181C9B
S1130C90C14B9847031C23702423FA18BF4B111C23
S1130CA01A1C0523081C111C1A1CBD4B9847182339
S1130CB0FA18BC4B111C1A1C0A23081C111C1A1C00
S1130CC0B74B98472B23FB1800221A700EE02B23F6
S1130CD0FB181A78FB68023292000021D1502B23B2
S1130CE0FB181A782B23FB1801321A702B23FB18DC
S1130CF01B78032BEBD9FB6800221A76FB680022D1
S1130D005A762923FB181A78A74B9200F968D15018
S1130D10FB68BA681A607B689B78082B08D1292382
S1130D20FB181B7803330122134001D01723C4E1BD
S1130D307B689A78FB681A71BB681B889BB21A1C83
S1130D400123134001D00523B7E1BB68DB7BDBB291
S1130D501A1C1023134001D01C23AEE1BB681B886E
S1130D609BB21A1C0223134001D01C23A5E17B680B
S1130D701B7C002B17D01423FB18181C8B4B984793
S1130D807B689B69DAB21423FB181A701423FB18CE
S1130D9001225A707B685B69DAB21423FB18101CB9
S1130DA0191C834B98477B681B7F002B17D0142397
S1130DB0FB18181C7D4B98477B685B6ADAB21423D6
S1130DC0FB181A701423FB1801225A707B681B6AE3
S1130DD0DAB21423FB18101C191C754B98472923ED
S1130DE0FB181A781823FB185200D35A0220191C36
S1130DF0704B98477B689B78082B0BD12923FB18F1
S1130E001B785A1C1823FB185200D35A0220191CB1
S1130E10684B98471023FB18181C674B98477B684E
S1130E201A781023FB181A702923FB181B78242224
S1130E30BA18D25C1023FB18101C191C5F4B98477E
S1130E402923FB181B782422BA18D35C181C5C4B8A
S1130E5098477B689A787B689B791343DBB29AB294
S1130E607B681B89134399B27B689A882E23FB18ED
S1130E700A431A807B685B78002B08D02E23FB186A
S1130E802E22BA181288802109010A431A80C0460A
S1130E90FB68181C4B4B9847031EF9D1BB682E22E4
S1130EA0BA1812881A807B685B7B002B03D02D2331
S1130EB0FB1804221A707B689B7B002B07D02D2320
S1130EC0FB182D22BA18127801210A431A70C04661
S1130ED0FB68181C3B4B9847031EF9D1BB68FF22E3
S1130EE01A712D23FB181B78002B0BD0C046FB680E
S1130EF0181C344B9847031EF9D1BB682D22BA182D
S1130F0012785A712C23FB187A68927A1A702A2361
S1130F10FB1800221A701CE02A23FB181B787A683D
S1130F20D318DB7A002B0DD02A23FB181B78102250
S1130F309A40131CD9B22C23FB182C22BA1812780D
S1130F400A431A702A23FB181A782A23FB18013241
S1130F501A702A23FB181B78012BDDD9C046FB68C5
S1130F60181C184B9847031EF9D1BB682C22BA18D9
S1130F7012789A71C046FB68181C124B9847031EDE
S1130F80F9D1FB681B79042B1ED0082B00D170E02B
S1130F90002B4BD090E0C046190C00009C9F000031
S1130FA0419E0000A49F000070010020910B0000EE
S1130FB089710000350B0000210B00009D6E0000BC
S1130FC0E16E0000B90B0000C046FB68181C3D4BE5
S1130FD09847031EF9D17B6828229A5CBB681A746F
S1130FE0C046FB68181C374B9847031EF9D17B6831
S1130FF029229A5CBB681A75C046FB68181C314BE1
S11310009847031EF9D17B682A229A5CBB681A763A
S1131010C046FB68181C2B4B9847031EF9D17B680C
S11310202B229A5CBB685A76002346E0C046FB68D4
S1131030181C244B9847031EF9D17B681A8DBB6892
S11310401A82C046FB68181C1E4B9847031EF9D130
S11310507B685A8DBB681A83C046FB68181C194B01
S11310609847031EF9D17B689A8DBB685A83002385
S113107023E0C046FB68181C124B9847031EF9D1A5
S11310807B689A6ABB681A61C046FB68181C0D4BE2
S11310909847031EF9D17B68DA6ABB689A61C04637
S11310A0FB68181C074B9847031EF9D17B681A6B21
S11310B0BB68DA61002300E01723181CBD460DB09D
S11310C090BDC046B90B000080B584B000AF786015
S11310D039607B681B68FB60C0467B68181C114B39
S11310E09847031EF9D17B681B79042B04D0082B85
S11310F00ED0002B06D010E03B68DAB2FB681A74FD
S113110000230BE03B689AB2FB681A82002305E0D7
S1131110FB683A681A61002300E01723181CBD46D7
S113112004B080BDB90B000080B584B000AF786016
S11311307B681B68FB60C0467B68181C0E4B984795
S1131140031EF9D17B681B79042B04D0082B0AD029
S1131150002B04D00AE0FB681B7CDBB207E0FB68D1
S11311601B8A9BB203E0FB681B6900E00023181C88
S1131170BD4604B080BDC046B90B000080B584B044
S113118000AF78607B681B68FB60FB68DB7BDBB2CD
S11311901A1C1023134001D015231AE0FB681B8886
S11311A09BB21A1C022313400AD07B68181C0B4BF9
S11311B09847C0467B68181C094B9847031EF9D111
S11311C0FB681B889BB2012213439AB2FB681A8006
S11311D00023181CBD4604B080BDC046E10B0000CE
S11311E0B90B000080B500AF0020024B9847BD4604
S11311F080BDC0464912000080B500AF0120024BFB
S11312009847BD4680BDC0464912000080B500AF76
S11312100220024B9847BD4680BDC04649120000DB
S113122080B500AF0320024B9847BD4680BDC04641
S11312304912000080B500AF0420024B9847BD4618
S113124080BDC0464912000080B584B000AF021CC6
S1131250FB1D1A70FB1D1A78284B9200D358FB60B3
S1131260FB681B689B7BDBB2FA68127E1340DAB220
S1131270FB68597E0B23FB180A401A700B23FB18DA
S11312801B780122134008D0FB689B68FA68101C85
S11312909847FB681B6801229A730B23FB181B7881
S11312A00222134008D0FB68DB68FA68101C9847D8
S11312B0FB681B6802229A730B23FB181B7810220D
S11312C0134008D0FB681B69FA68101C9847FB6838
S11312D01B6810229A730B23FB181B7820221340DF
S11312E008D0FB685B69FA68101C9847FB681B68A8
S11312F020229A73BD4604B080BDC0467001002010
S113130080B582B000AF78607B6800221A70BD4659
S113131002B080BD80B582B000AF021C3960FB1DF5
S11313201A70FB1D1B78012B0AD0022B0FD0002B47
S113133014D10E4B0D4A91693A680A439A610FE041
S11313400A4B0A4AD1693A680A43DA6108E0074B52
S1131350064A116A3A680A431A6201E0172300E058
S11313600023181CBD4602B080BDC04600040040E6
S113137080B582B000AF021CFB1D1A70064BFA1D2B
S11313801278111C1F220A40012191400A1C1A6084
S1131390BD4602B080BDC04600E100E080B582B029
S11313A000AF104B3B6000237B6012E07B689B0026
S11313B008229446BC446344083B1B685B78DBB258
S11313C0DBB25BB2002B01DA012306E07B68013358
S11313D07B607B68002BE9D00023181CBD4602B05B
S11313E080BDC0460018004080B584B000AF2C4BCF
S11313F07B60002040212B4B98473B1C181C2A4B38
S113140098473B1C00221A703B1C0520191C274BD3
S113141098470520264B98470023FB6018E0FB689B
S11314209B0010229446BC4463440C3B1A68FB683E
S11314309B0010218C46BC4463440C3B1B681B7806
S1131440DBB201210B43DBB21370FB680133FB6099
S1131450FB68002BE3D0C046164B9847031EFBD114
S11314600B23FB1800221A700DE00B23FB181A78CB
S1131470114B92000021D1500B23FB181A780B2337
S1131480FB1801321A700B23FB181B780F2BECD9B5
S113149004200A4B98470A4B9847BD4604B080BDC8
S11314A00018004015130000011300009D6E000099
S11314B0E16E00009D130000840100207113000000
S11314C0C514000080B582B000AF144B3B6000230C
S11314D07B6018E07B689B0008229446BC4463440C
S11314E0083B1A687B689B0008218C46BC44634413
S11314F0083B1B681B78DBB202210B43DBB2137081
S11315007B6801337B607B68002BE3D0C046044BCF
S11315109847031EFBD1BD4602B080BD00180040B1
S11315209D13000080B586B000AF7860274B7A68C1
S11315309200D3587B617B691B683B610E23FB18C7
S11315407A69528A1A807B691B8A9AB20E23FB1825
S11315500E21791809880A401A803B691B7ADAB28D
S11315600C23FB181A803B69DB79DBB29AB20C239B
S1131570FB180C21791809880A401A800C23FB18DF
S11315801B88802213400CD00E23FB181B880222D8
S1131590134002D07B69DB6898473B6980221A724A
S11315A011E00C23FB181B88012213400BD00E23DF
S11315B0FB181B880122134002D07B699B68984763
S11315C03B6901221A72BD4606B080BDC4010020E9
S11315D080B500AF0020024B9847BD4680BDC04691
S11315E02515000080B582B000AF78607B680022CA
S11315F01A70BD4602B080BD80B586B000AFF860F9
S1131600B9607A601623FB1800221A80BB683B611C
S1131610BB685A08FB689A4201D2402326E0BB68A3
S11316205B083B610AE03A69FB68D31A3B61162305
S1131630FB181A881623FB1801321A803A69FB68D2
S11316409A42F0D21623FB181622BA181288013ACD
S11316501A801623FB181B88FF2B01D9402305E0B1
S11316607B681622BA1812881A800023181CBD46FB
S113167006B080BD80B584B000AF021CFB1D1A709B
S1131680BB1D0A1C1A701A4B1B7801225340DBB293
S1131690002B03D1BB1D1B78002B1BD00C23FB1884
S11316A0181C144B98470C23FB18FA1D12781A7057
S11316B00C23FB181320191C0F4B984713200F4BB6
S11316C098470B4BFA1D12785A70094B01221A7075
S11316D0002308E0064B5B78FA1D12789A4201D188
S11316E0002300E01D23181CBD4604B080BDC04685
S11316F08C000020E51500009D6E0000E16E0000E6
S113170080B582B000AF78600A1CFB1C1A707B683D
S11317104D4A93423FD04C4A934206D84B4A934297
S11317200FD04B4A934221D089E04A4A934200D1D8
S11317305BE0494A934200D16CE0484A93423FD06F
S11317407DE0FB1C1B78012B0AD002DC002B05D0AA
S113175075E0022B06D0032B06D070E0404B6FE0FF
S1131760404B6DE0404B6BE0404B69E0FB1C1B7849
S1131770012B0AD002DC002B05D060E0022B06D03E
S1131780032B06D05BE003235AE0394B58E0394B76
S113179056E0394B54E0FB1C1B78012B0AD002DCC9
S11317A0002B05D04BE0022B06D0032B06D046E0DD
S11317B0324B45E0324B43E0324B41E0324B3FE0A9
S11317C0FB1C1B78012B0AD002DC002B05D036E071
S11317D0022B06D0032B06D031E02C4B30E02C4BEF
S11317E02EE02C4B2CE02C4B2AE0FB1C1B78012B0D
S11317F00AD002DC002B05D021E0022B06D0032BFB
S113180006D01CE0254B1BE0254B19E0254B17E0C7
S1131810254B15E0FB1C1B78012B0AD002DC002BA6
S113182005D00CE0022B06D0032B06D007E01F4B9B
S113183006E01F4B04E01F4B02E01F4B00E00023B7
S1131840181CBD4602B080BD0010004200080042D2
S1131850000C004200180042001C00420014004228
S11318600300040003000500030006000300070052
S11318700300010003001E0003001F000300080012
S11318800300090003000A0003000B00030010001A
S113189003001100030012000300130003000C00F6
S11318A003000D0003000E0003000F0003001600E8
S11318B003001700030018000300190090B58BB053
S11318C000AF78600C23FB180E4A13CA13C313CA63
S11318D013C300237B620DE07B680C22BA18796A7B
S11318E089008A58934202D17B6ADBB206E07B6AA4
S11318F001337B627B6A052BEED90023181CBD469D
S11319000BB090BDB09F000090B583B000AF021C37
S1131910FB1D1A70FB1D1B78012B17D0164B984723
S1131920164B1A68164B1B680220111C1A1C154B07
S11319309847124B1A68124B1B68134C101C191C45
S1131940221C124B98470C4B984712E00B4B1A6819
S11319500B4B1B680220111C1A1C0A4B9847074B9F
S11319601A68074B1B68084C101C191C221C074BD7
S11319709847BD4603B090BDE5190000C80100209A
S1131980CC010020614B0000B0160000419E000015
S113199080B584B000AF786039600F4B7A681A6004
S11319A00E4B3A681A600023FB600EE00A4B1A687B
S11319B0FB68D318FF221A70084B1A68FB68D31807
S11319C0FF221A70FB680133FB60FB68044A9342F0
S11319D0ECDDBD4604B080BDCC010020C801002070
S11319E0AF16000090B583B000AF3B1D204A1A80AB
S11319F0BB1D00221A8030E01E4B1A68BB1D1B88D9
S1131A00D218FB1C12781A701A4B1A68BB1D1B885B
S1131A10D418184B1B683A1D1288511EBA1D12881F
S1131A208A1A9B181B78181C134B9847031C2370A5
S1131A30104B1B683A1D1288511EBA1D12888A1A4F
S1131A409C18FB1C1B78181C0B4B9847031C237019
S1131A50BB1D1A88BB1D01321A803B1D1B885B0805
S1131A609BB2BA1D12889A42C6D3BD4603B090BD3C
S1131A70B0160000CC0100202924000090B585B0E8
S1131A8000AF041C081C111CBB1D221C1A803B1D2A
S1131A90021C1A80FB1C0A1C1A70BB1D1A888423A2
S1131AA05B009A420BD83B1D1B88B02B07D8BB1D8B
S1131AB01B88002B03D03B1D1B88002B00D165E045
S1131AC0BB1D1A88BB1D013A1A803B1D1A883B1D99
S1131AD0013A1A80BB1D1B88DB089AB20E23FB183F
S1131AE01A700E23FB181B78DA00BB1D1B88D31A4F
S1131AF0073301229A400D23FB181A700E23FB189A
S1131B0019783B1D1A88131C5B019B18CB18BB600A
S1131B10204B1A68BB68D2180F23FB1812781A706E
S1131B20FB1C1B78012B13D0022B1CD0002B00D0E4
S1131B3024E00D23FB181B78DB43D9B20F23FB18D9
S1131B401A780B1C1340DAB20F23FB181A7015E035
S1131B500F23FB180F22B9180D22BA18097812782E
S1131B600A431A700AE00F23FB180F22B9180D223A
S1131B70BA18097812784A401A70C046054B1A6898
S1131B80BB68D3180F22BA1812781A70BD4605B074
S1131B9090BDC046CC010020F0B58DB000AF051C4F
S1131BA00C1C101C191CBB1D2A1C1A803B1D221C5A
S1131BB01A80BB1C021C1A803B1C0A1C1A802F238F
S1131BC0FB1800221A703B1C1A883B1D1B88D31A71
S1131BD07B62BB1C1A88BB1D1B88D31A3B627B6AC1
S1131BE0D9175A184A403B6AD9175B184B409A4296
S1131BF009DD7B6AFB603B6A7B62FB683B622F23E7
S1131C00FB1801221A703B6A002B03DA01235B42A2
S1131C10BB6201E00123BB62494B386A9847021C4E
S1131C200B1C484C101C191C00220023A047031E47
S1131C3007D0434B786A9847031C0C1CBB61FC61BA
S1131C4011E03F4B786A9847051C0E1C3C4B386AE0
S1131C509847021C0B1C3C4C281C311CA047031C3D
S1131C600C1CBB61FC612F23FB181B78002B32D0AA
S1131C7000237B612AE0324B78699847021C0B1CD5
S1131C80324C101C191CBA69FB69A047031C0C1CBC
S1131C90191C221C2E4B081C111C9847031C9AB2B9
S1131CA0BB1D1B88D31899B27B699AB23B1D1B8854
S1131CB0D3189AB24823FB181B78081C111C1A1C51
S1131CC0244B98477A69BB6AD3187B617A693B6A6B
S1131CD09A42D0D131E000233B612AE03B699AB2B9
S1131CE0BB1D1B88D3189DB2154B38699847021C3D
S1131CF00B1C164C101C191CBA69FB69A047031C69
S1131D000C1C191C221C124B081C111C9847031C88
S1131D109AB23B1D1B88D3189AB24823FB181B7830
S1131D20281C111C1A1C0B4B98473A69BB6AD31820
S1131D303B613A693B6A9A42D0D1BD460DB0F0BDD1
S1131D40719D00009978000061880000DD9000001A
S1131D50059D00007D1A0000B0B584B002AF051CDB
S1131D600C1C101C191CBB1D2A1C1A803B1D221C98
S1131D701A80BB1C021C1A803B1C0A1C1A80BB1D47
S1131D8018883B1D1988BB1C1A883B1D1C88182306
S1131D90FB181B780093231C184CA047BB1C188805
S1131DA03B1D1988BB1C1A883B1C1C881823FB1874
S1131DB01B780093231C114CA047BB1C18883B1CA8
S1131DC01988BB1D1A883B1C1C881823FB181B7818
S1131DD00093231C094CA047BB1D18883B1C198881
S1131DE0BB1D1A883B1D1C881823FB181B78009305
S1131DF0231C024CA047BD4602B0B0BD991B000095
S1131E00B0B588B002AF051C0C1C101C191CBB1DFE
S1131E102A1C1A803B1D221C1A80BB1C021C1A801F
S1131E203B1C0A1C1A803A1C3B1D12881B889A42D0
S1131E3014D21623FB18BA1C12881A801423FB1818
S1131E40BA1D12881A801223FB183A1C12881A80B1
S1131E501023FB183A1D12881A8013E01623FB186E
S1131E60BA1D12881A801423FB18BA1C12881A800F
S1131E701223FB183A1D12881A801023FB183A1CEF
S1131E8012881A800E23FB181222BA1812881A809C
S1131E9019E01623FB1818880E23FB18198814233D
S1131EA0FB181A880E23FB181C882823FB181B78A0
S1131EB00093231C094CA0470E23FB181A880E23F9
S1131EC0FB1801321A800E23FA181023FB1812880B
S1131ED01B889A42DDD3BD4606B0B0BD991B0000F5
S1131EE0B0B58AB000AF051C0C1C101C191CBB1D1E
S1131EF02A1C1A803B1D221C1A80BB1C021C1A803F
S1131F007B1C0A1C1A70BB1C1B885B423B620023AF
S1131F10FB61BB1C1B889B00BB6100237B61BB690D
S1131F205B0009333B61BB1C1A88B14B101C9847FA
S1131F30021C0B1CAF4C101C191CAF4AAF4BA04722
S1131F40031C0C1C1A1C231CAD4C101C191C002255
S1131F50AC4BA047031C0C1C191C221CAA4B081CCC
S1131F60111C9847031CFB60BA1DBB1C12881B88FC
S1131F70D31899B23B1D1A887B1C1B78081C111CB2
S1131F801A1CA24B9847BA1DBB1C12881B88D31A73
S1131F9099B23B1D1A887B1C1B78081C111C1A1C47
S1131FA09A4B98473A1DBB1C12881B88D3189AB2C7
S1131FB0BB1D19887B1C1B78081C111C1A1C934B15
S1131FC098473A1DBB1C12881B88D31A9AB2BB1DB2
S1131FD019887B1C1B78081C111C1A1C8B4B9847F6
S1131FE0FB689AB2BB1D1B88D31899B2FB689AB2DE
S1131FF03B1D1B88D3189AB27B1C1B78081C111C30
S11320001A1C824B9847FB689AB2BB1D1B88D318D5
S113201099B2FB689BB23A1D1288D31A9AB27B1C00
S11320201B78081C111C1A1C784B9847FB689BB240
S1132030BA1D1288D31A99B2FB689AB23B1D1B8849
S1132040D3189AB27B1C1B78081C111C1A1C6F4BEA
S11320509847FB689BB2BA1D1288D31A99B2FB68E1
S11320609BB23A1D1288D31A9AB27B1C1B78081CA7
S1132070111C1A1C654B984701237B62AFE07B69F6
S113208008337B61FA697B69D318FB61FA69BB6920
S11320909A4209DD3B6A01333B623B69083B3B6181
S11320A0BA693B69D318BB617B6A9AB2BB1D1B88B2
S11320B0D31899B23B6A9AB23B1D1B88D3189AB2C3
S11320C07B1C1B78081C111C1A1C504B98477B6AFC
S11320D09BB2BA1D1288D31A99B23B6A9AB23B1DBD
S11320E01B88D3189AB27B1C1B78081C111C1A1C61
S11320F0464B98477B6A9AB2BB1D1B88D31899B28A
S11321003B6A9BB23A1D1288D31A9AB27B1C1B7885
S1132110081C111C1A1C3D4B98477B6A9BB2BA1DC4
S11321201288D31A99B23B6A9BB23A1D1288D31A09
S11321309AB27B1C1B78081C111C1A1C334B984741
S11321403B6A9AB2BB1D1B88D31899B27B6A9AB2B8
S11321503B1D1B88D3189AB27B1C1B78081C111CCE
S11321601A1C2A4B98473B6A9BB2BA1D1288D31A91
S113217099B27B6A9AB23B1D1B88D3189AB27B1C16
S11321801B78081C111C1A1C204B98473B6A9AB2F6
S1132190BB1D1B88D31899B27B6A9BB23A1D128867
S11321A0D31A9AB27B1C1B78081C111C1A1C174BDF
S11321B098473B6A9BB2BA1D1288D31A99B27B6ABC
S11321C09BB23A1D1288D31A9AB27B1C1B78081C46
S11321D0111C1A1C0D4B98477B6A01337B627A6A87
S11321E0FB689A4200DA4AE7BD460AB0B0BDC04671
S11321F0719D0000DD90000063D97DDBD49FE63F34
S1132200118200000000E03F059D00007D1A0000DF
S1132210B0B586B000AF051C0C1C101C191CBB1DEE
S11322202A1C1A803B1D221C1A80BB1C021C1A800B
S11322307B1C0A1C1A70BB1C1B885B427B613AE046
S1132240BB1C1B88BA1C12885A437B6979694B43AF
S1132250D21A1D4B101C9847031C0C1C181C211C63
S11322601A4B98470A1C011C194B081C111C98474F
S1132270031CFB60FB685B423B6115E07B699AB21F
S1132280BB1D1B88D31899B23B699AB23B1D1B88AE
S1132290D3189AB27B1C1B78081C111C1A1C0D4BFA
S11322A098473B6901333B613A69FB689A42E5DB35
S11322B07B6901337B61BB1C1A887B699A42BFDC52
S11322C0BD4606B0B0BDC046719D0000517400000B
S11322D0059D00007D1A000090B589B000AF041C74
S11322E0081CBA60191C0E23FB18221C1A800C232C
S11322F0FB18021C1A80FB1D0A1C1A701723FB18FA
S11323000C221A701623FB1837221A701623FB1896
S11323101A781523FB1842498A5C1A701E23FB188D
S113232000221A806EE01623FB181B785A1C1E2309
S1132330FB181B88D2181423FB1839498A5C1A70BD
S11323401623FB181B789A1C1E23FB181B88D21813
S11323501323FB1832498A5C1A701D23FB180122CF
S11323601A701A23FB1800221A802EE01423FB187B
S11323701D22BA181B7812781340DBB2002B16D03A
S11323800E23FA181E23FB1812881B88D31899B23F
S11323900C23FA181A23FB1812881B88D3189AB234
S11323A0FB1D1B78081C111C1A1C1E4B98471D236F
S11323B0FA181D23FB181B78DB1813701A23FB185B
S11323C01A881A23FB1801321A801A23FB181B8857
S11323D0072BCBD91823FB1800221A8006E01823F8
S11323E0FB181A881823FB1801321A801823FB18CB
S11323F01B88032BF3D91E23FB181E22BA1812883C
S113240002321A801523FB181B789BB21E22BA18BD
S113241012889A4200D286E7BD4609B090BDC046F4
S1132420C8A000007D1A000080B582B000AF021C75
S1132430FB1D1A70FB1D1B78024AD35C181CBD4699
S113244002B080BDC89F000080B582B000AF786044
S11324507B685B09181CBD4602B080BD80B582B0A4
S113246000AF78607B68DB01034A94466344181C20
S1132470BD4602B080BDC0460044004180B582B074
S113248000AF78607B68181C054B9847031C181C28
S1132490044B9847031C181CBD4602B080BDC046BF
S11324A0492400005D24000080B582B000AF78604C
S11324B07B681F22134001229A40131C181CBD463E
S11324C002B080BD90B583B000AF78600A1CFB1CDD
S11324D01A70FB1C1B78002B0BD07B68181C0C4B50
S11324E09847041C7B68181C0A4B9847031CA3617B
S11324F00AE07B68181C064B9847041C7B68181C70
S1132500044B9847031C6361BD4603B090BDC046AD
S11325107D240000A924000090B583B000AF78604A
S11325207B68181C084B9847031C1C6A7B68181CA2
S1132530064B9847031C23405A1E9341DBB2181CD8
S1132540BD4603B090BDC0467D240000A924000010
S113255080B582B000AF78600A1CFB1C1A707A68E0
S1132560FB1C1B78101C191C024B9847BD4602B07B
S113257080BDC046C524000080B582B000AF78603D
S11325807B68181C034B9847031C181CBD4602B0FB
S113259080BDC0461925000080B582B000AF021C82
S11325A0FB1D1A70FB1D1B785BB2093308DA464B1E
S11325B01B781A1C454B1201D25A454B1A8080E0F5
S11325C0FB1D1B785BB204330EDAFB1D1B785BB278
S11325D0093309DB3C4B1B783C4A1B01D3180233FB
S11325E01A883B4B1A806CE0FB1D1B785BB2052BF1
S11325F00EDCFB1D1B785BB2043309DB324B1B780A
S1132600324A1B01D31804331A88314B1A8058E01C
S1132610FB1D1B785BB20A2B0EDCFB1D1B785BB227
S1132620052B09DD284B1B78284A1B01D3180633D8
S11326301A88274B1A8044E0FB1D1B785BB20F2BD2
S11326400EDCFB1D1B785BB20A2B09DD1E4B1B78CD
S11326501E4A1B01D31808331A881D4B1A8030E018
S1132660FB1D1B785BB2142B0EDCFB1D1B785BB2CD
S11326700F2B09DD144B1B78144A1B01D3180A33A2
S11326801A88134B1A801CE0FB1D1B785BB2282BA5
S11326900EDCFB1D1B785BB2142B09DD0A4B1B7887
S11326A00A4A1B01D3180C331A88094B1A8008E014
S11326B0054B1B78054A1B01D3180E331A88044BAB
S11326C01A80BD4602B080BD180100200CA900008C
S11326D08E00002080B500AF274B1B78042B45D813
S11326E09A00264BD3181B689F46254B254A1A602F
S11326F0254B264A1A60264B264A1A60264B274A3F
S11327001A6033E01E4B264A1A601F4B254A1A6092
S11327101F4B254A1A60204B1A4A1A6026E0184BB0
S11327201F4A1A60184B214A1A60194B204A1A6032
S1132730194B144A1A6019E0114B1E4A1A60124BC5
S1132740104A1A60124B134A1A60134B1A4A1A6041
S11327500CE00B4B194A1A600B4B0A4A1A600C4BDB
S11327600C4A1A600C4B164A1A60C0460A4B1B6886
S113277000221A70BD4680BD18010020ACA90000DB
S113278008010020900000200C010020B800002067
S113279010010020A000002014010020C800002027
S11327A091000020C2000020AA000020DE000020CA
S11327B0B2000020C4000020D4000020DA00002071
S11327C0EA00002080B582B000AF021CFB1D1A7025
S11327D0BB1D0A1C1A70184BFA1D12781A702D2092
S11327E00121164B9847164B984711200121134B92
S11327F098470B200121114B9847152001210F4BBD
S1132800984705200F4B9847152000210B4B9847FC
S113281005200C4B984715200121084B98470520AB
S1132820084B9847BB1D1B785BB2181C064B984796
S1132830BD4602B080BDC0461801002051250000ED
S1132840554500009D6100009925000080B582B0C7
S113285000AFBB1D00221A8009E0BB1D1B88504A33
S11328600021D154BB1D1A88BB1D01321A80BB1D27
S11328701B886F2BF1D94B4B9847BB1D00221A8044
S113288009E0BB1D1B88BA1D591C1180464A93429E
S113289001D9F02380E02E20444B9847031EF0D149
S11328A072200021424B9847031C1A1C0F2313402B
S11328B0022B01D0F1236FE0022040213D4B9847C9
S11328C00F2000213A4B9847031CDBB25BB2002B6C
S11328D001DBF22360E00B200221364B9847364B94
S11328E01B781A1C131C9B009B189B00334A9B18D3
S11328F00120191C0822324B98470720D1212D4B67
S11329009847082002212B4B98470920C221294BC4
S1132910984704200321274B984703200121254B86
S1132920984703200021234B98470520254B9847BF
S1132930BB1D00221A80052001211E4B9847F02060
S1132940204B9847052003211A4B984728201D4BFC
S1132950984705200F21174B98472820194B984773
S11329600F200021124B9847031C1A1C40231340CC
S113297004D0022004210F4B984706E0BB1D1B889E
S1132980BA1D591C1180042BD5D1BB1D1B88032BE8
S113299001D9F42300E00023181CBD4602B080BD19
S11329A090000020D5260000FE0F000079250000CD
S11329B0514600008147000018010020A8A800002B
S11329C0F14600009D61000090B593B000AFF8603F
S11329D0B960FB1D1A704023FB1800221A80BB68E3
S11329E0FB63FB68BB63CA4B00221A80C94B984740
S11329F0BB6BFB60FB6BBB604423FB1800221A809B
S1132A0000F006FCC44B1B78191CC44A0B1C9B0029
S1132A105B189B00D31808335A884223FB18013AE9
S1132A201A80BF4B1B68002B17D0BD4B1C68BA4BD8
S1132A301B78191CB94A0B1C9B005B189B00D3180C
S1132A4008335B88DBB2B9681422BA18081C111C5D
S1132A501A1CA0471423FB18FB604623FB18002212
S1132A601A8000F05DFBFB685A1CFA603722BA1822
S1132A701B781370FB1D1B78012B00D1D6E003DCFF
S1132A80002B08D000F045FB022B00D1A7E1032B5B
S1132A9000D16FE23DE3A34B1A684623FB181B8861
S1132AA0D3183722BA18127840210A4001D0C02224
S1132AB000E080221A709B4B1A684623FB181B887F
S1132AC0D218984B19684623FB181B88CB181B781F
S1132AD0D8B23723FB181B7810210B4001D03023C8
S1132AE000E02023011C0B43DBB2DBB213708D4BDF
S1132AF01A684623FB181B88D2188A4B1968462388
S1132B00FB181B88CB181B78D8B23723FB181B780B
S1132B1004210B4001D00C2300E00823011C0B43CB
S1132B20DBB2DBB213707F4B1A684623FB181B8899
S1132B30D2187C4B19684623FB181B88CB181B78CA
S1132B40D8B23723FB181B7801210B4001D0032393
S1132B5000E00223011C0B43DBB2DBB21370724BA7
S1132B601A684223FB181B88D3183722BA18127824
S1132B7052B2002A01DA032200E002221A706A4BE0
S1132B801A684223FB181B88D218674B1968422322
S1132B90FB181B88CB181B78D8B23723FB181B787B
S1132BA020210B4001D00C2300E00823011C0B431F
S1132BB0DBB2DBB213705C4B1A684223FB181B8830
S1132BC0D218594B19684223FB181B88CB181B7861
S1132BD0D8B23723FB181B7808210B4001D03023CF
S1132BE000E02023011C0B43DBB2DBB213704E4B1D
S1132BF01A684223FB181B8842217918581E088042
S1132C00191C5118484A1268D3181B78D8B23723B4
S1132C10FB181B780222134001D0C02300E080235C
S1132C20021C1343DBB2DBB20B7072E23D4B1A6839
S1132C304623FB181B88D3183722BA181278402170
S1132C400A4001D0802200E000221A70354B1A6835
S1132C504623FB181B88D218324B19684623FB18ED
S1132C601B88CB181B78D8B23723FB181B7810218C
S1132C700B4001D0202300E00023011C0B43DBB2F6
S1132C80DBB21370274B1A684623FB181B88D21833
S1132C90244B19684623FB181B88CB181B78D8B221
S1132CA03723FB181B7804210B4001D0082300E0D4
S1132CB00023011C0B43DBB2DBB21370194B1A68FF
S1132CC04623FB181B88D218164B19684623FB1899
S1132CD01B88CB181B78D8B23723FB181B7801212B
S1132CE00B4001D0022300E00023011C0B43DBB2A4
S1132CF0DBB213700C4B1A684223FB181B88D318E1
S1132D003722BA18127852B2002A0FDA02220EE0E1
S1132D10040100204D44000018010020A8A8000070
S1132D20000100200C0100200801002000221A707C
S1132D30C94B1A684223FB181B88D218C64B196862
S1132D404223FB181B88CB181B78D8B23723FB18F7
S1132D501B7820210B4001D0082300E00023011C34
S1132D600B43DBB2DBB21370BB4B1A684223FB1874
S1132D701B88D218B84B19684223FB181B88CB1840
S1132D801B78D8B23723FB181B7808210B4001D0DD
S1132D90202300E00023011C0B43DBB2DBB21370E1
S1132DA0AD4B1A684223FB181B8842217918581E20
S1132DB00880191C5118A84A1268D3181B78D8B275
S1132DC03723FB181B780222134001D0802300E034
S1132DD00023021C1343DBB2DBB20B7099E19F4B5F
S1132DE01A684623FB181B88D3183722BA1812789E
S1132DF040210A4001D0C02200E000221A70974B03
S1132E001A684623FB181B88D218944B196846236A
S1132E10FB181B88CB181B78D8B23723FB181B78F8
S1132E2010210B4001D0302300E00023011C0B4390
S1132E30DBB2DBB21370894B1A684623FB181B887C
S1132E40D218864B19684623FB181B88CB181B78AD
S1132E50D8B23723FB181B7804210B4001D00C2374
S1132E6000E00023011C0B43DBB2DBB213707B4B8D
S1132E701A684623FB181B88D218784B1968462316
S1132E80FB181B88CB181B78D8B23723FB181B7888
S1132E9001210B4001D0032300E00023011C0B435C
S1132EA0DBB2DBB213706C4B1A684223FB181B882D
S1132EB0D3183722BA18127852B2002A01DA032240
S1132EC000E000221A70644B1A684223FB181B8826
S1132ED0D218614B19684223FB181B88CB181B7846
S1132EE0D8B23723FB181B7820210B4001D00C23C8
S1132EF000E00023011C0B43DBB2DBB21370564B22
S1132F001A684223FB181B88D218534B19684223B2
S1132F10FB181B88CB181B78D8B23723FB181B78F7
S1132F2008210B4001D0302300E00023011C0B4397
S1132F30DBB2DBB21370484B1A684223FB181B88C0
S1132F4042217918581E0880191C5118424A1268E7
S1132F50D3181B78D8B23723FB181B7802221340EE
S1132F6001D0C02300E00023021C1343DBB2DBB218
S1132F700B70CEE0394B1A684623FB181B88D31814
S1132F803722BA18127840210A4001D0802200E08A
S1132F90C0221A70314B1A684623FB181B88D218BA
S1132FA02E4B19684623FB181B88CB181B78D8B204
S1132FB03723FB181B7810210B4001D0202300E09D
S1132FC03023011C0B43DBB2DBB21370234B1A68B2
S1132FD04623FB181B88D218204B19684623FB187C
S1132FE01B88CB181B78D8B23723FB181B78042115
S1132FF00B4001D0082300E00C23011C0B43DBB27F
S1133000DBB21370154B1A684623FB181B88D218C1
S1133010124B19684623FB181B88CB181B78D8B2AF
S11330203723FB181B7801210B4001D0022300E059
S11330300323011C0B43DBB2DBB21370064B1A688B
S11330404223FB181B88D3183722BA18127852B2BD
S1133050002A05DA022204E0080100200C01002005
S113306003221A70814B1A684223FB181B88D2185A
S11330707E4B19684223FB181B88CB181B78D8B2E7
S11330803723FB181B7820210B4001D0082300E0D4
S11330900C23011C0B43DBB2DBB21370734B1A68B5
S11330A04223FB181B88D218704B19684223FB1863
S11330B01B88CB181B78D8B23723FB181B78082140
S11330C00B4001D0202300E03023011C0B43DBB272
S11330D0DBB21370654B1A684223FB181B8842212C
S11330E07918581E0880191C5118604A1268D318A0
S11330F01B78D8B23723FB181B780222134001D067
S1133100802300E0C023021C1343DBB2DBB20B704C
S1133110C0464623FB181A884623FB1801321A803E
S1133120534B1B78191C534A0B1C9B005B189B00C8
S1133130D31808335B884622BA1812889A4200D200
S113314091E44B4B1B78191C4A4A0B1C9B005B18DF
S11331509B00D31808335B881A1CBB689B18BB60A0
S1133160434B1B78191C434A0B1C9B005B189B00A8
S1133170D31808339A884423FB181B88D31A9BB2AC
S1133180013B9AB24023FB181A803B4B1A68402338
S1133190FB1800215B5E9B109BB21BB2D21840232C
S11331A0FB1800215B5E35490B4004D5013B04212B
S11331B049420B4301339BB21BB23149CB5C1370C0
S11331C02B4B1B78191C2B4A0B1C9B005B189B0078
S11331D0D31808339B791A1C2A4B0A20191C2A4B32
S11331E0984702200721294B9847234B1A6840230C
S11331F0FB1800215B5E9B109BB21BB2D31800220C
S11332001A704423FB181A884423FB1801321A80CD
S1133210174B1B78191C174A0B1C9B005B189B004F
S1133220D31808339B884422BA1812889A4201D2D0
S1133230FFF7E8FB164B9847031C9AB2154B1A800C
S1133240154B1A88134B1B889A4201D9FFF7D0FB00
S1133250C046114B1B881C1C0D4B9847031C9C42F9
S1133260F7D80E4B9847BD4613B090BD0801002017
S113327018010020A8A8000010010020030000800D
S1133280A8A9000090000020F1460000814700003A
S113329081440000040100208E0000205D440000F1
S11332A090B593B000AFF860B960FB1D1A70FB686D
S11332B0FB63BB68BB63AF4B1B78191CAE4A0B1C8A
S11332C09B005B189B00D31810331A88AB4B1A80F1
S11332D0AB4B9847A74B1B78191CA74A0B1C9B00A8
S11332E05B189B00D31808339B88DB089BB2DAB2C7
S11332F03723FB18013A1A70FB6BFB60BB6BBB6096
S1133300A04B1B68FA1D12789F498A5C1A704423EB
S1133310FB1800221A80F4E09C4B1B68002B17D08A
S11333209A4B1C68934B1B78191C934A0B1C9B00EB
S11333305B189B00D31808335B88DBB2B968102292
S1133340BA18081C111C1A1CA0471023FB18FB6098
S1133350884B1B78191C884A0B1C9B005B189B002C
S1133360D31808335B88DBB2DB18DAB24323FB18CB
S1133370013A1A704623FB1800221A803CE0FB68CD
S11333805A1CFA603622BA181B781370804B1A68DC
S11333904323FB181B7843217918581E0870D3184F
S11333A0FA1D10783622BA1812781209D2B2111CFA
S11333B00F221140774A000141188A5C1A70744B3D
S11333C01A684323FB181B7843217918581E087088
S11333D0D318FA1D10783622BA1812780F2111402A
S11333E06C4A000141188A5C1A704623FB181A883B
S11333F04623FB1801321A805E4B1B78191C5E4A67
S11334000B1C9B005B189B00D31808335B88462277
S1133410BA1812889A42B2D34423FB181B88DB08DB
S11334209AB23523FB181A704423FB181B88DAB2AE
S11334303423FB1807210A401A704423FB181B8805
S1133440012213409BB2002B10D1534B1B6837222F
S1133450BA1811783522BA1812788A1A9B183422AD
S1133460BA1812784D498A5C1A700BE04C4B1A68F2
S11334703523FB181B78D3183422BA18127847491D
S11334808A5C1A703B4B1B78191C3B4A0B1C9B0033
S11334905B189B00D31808335B881A1CBB689B1805
S11334A0BB60344B1B78191C334A0B1C9B005B1804
S11334B09B00D31808339B791A1C3A4B0A20191C19
S11334C0394B984702200721384B9847344B1A68E8
S11334D03523FB181B78D31800221A702E4B1B6857
S11334E03722BA1811783522BA1812788A1A9B181A
S11334F000221A704423FB181A884423FB18013253
S11335001A801C4B1B78191C1B4A0B1C9B005B1854
S11335109B00D31808339B884422BA1812889A4215
S113352000D2F9E6224B9847031C9AB2114B1B7840
S1133530181C1149031C9B001B189B00CB1810334B
S11335401B88D3189AB20D4B1A801A4B1A880B4B4E
S11335501B889A4200D9CFE6C046164B1B881C1C18
S1133560134B9847031C9C42F7D8134B9847BD460E
S113357013B090BD18010020A8A800000401002089
S11335804D44000014010020A4A900000001002003
S1133590100100205CA90000080100209CA9000083
S11335A00C01002090000020F1460000814700003B
S11335B0814400008E0000205D44000080B582B08C
S11335C000AF78603960274B00221A60264B1B78C5
S11335D0032B03D0244B1B78042B20D17A680123BE
S11335E05B42101C191C0022204B98477A68012367
S11335F05B42101C191C01221C4B98473A6801239A
S11336005B42101C191C0222184B98473A6801238C
S11336105B42101C191C0322144B98471FE07A6864
S113362001235B42101C191C0022114B98477A6835
S113363001235B42101C191C01220D4B98473A6868
S113364001235B42101C191C0222094B98473A685B
S113365001235B42101C191C0322054B9847BD46ED
S113366002B080BD0001002018010020A13200003A
S1133670C929000080B582B000AFBB1D00221A80AA
S113368012E0344B1A68BB1D1B88D31800221A7031
S1133690314B1A68BB1D1B88D31800221A70BB1D3E
S11336A01A88BB1D01321A802C4B1B78191C2C4A1A
S11336B00B1C9B005B189B00D31808335B88BA1D56
S11336C012889A42DDD3BB1D00221A8030E0254BBC
S11336D01B68BA1D1288920892B29B18BA1D1288F0
S11336E003210A4020498A5C1A701C4B1B78191C60
S11336F01B4A0B1C9B005B189B00D31808339B7957
S11337001A1C1A4B0A20191C194B9847022007212E
S1133710184B9847134B1B68BA1D1288920892B233
S11337209B1800221A70BB1D1A88BB1D01321A8017
S11337300A4B1B78191C0A4A0B1C9B005B189B0044
S1133740D31808339B88BA1D12889A42BFD3BD464A
S113375002B080BD080100200C01002018010020E7
S1133760A8A8000010010020A8A9000090000020D3
S1133770F14600008147000080B582B000AFBB1D58
S113378000221A800BE04D4B1A68BB1D1B88D3180E
S113379000221A70BB1D1A88BB1D01321A80BB1D82
S11337A01A88474B1B78181C4649031C9B001B189E
S11337B09B00CB1808335B885B009A42E3DB404BE9
S11337C01B78191C3F4A0B1C9B005B189B00D318E9
S11337D008339B88DB089BB2DAB27B1D013A1A706E
S11337E0BB1D00221A8056E0BB1D1B88DB089AB261
S11337F03B1D1A70BB1D1B88DAB2FB1C07210A4053
S11338001A70BB1D1B88012213409BB2002B0DD1E3
S11338102D4B1B687A1D11783A1D12788A1A9B1851
S1133820FA1C127829498A5C1A7009E0284B1A6834
S11338303B1D1B78D318FA1C127824498A5C1A7031
S11338401F4B1B78191C1F4A0B1C9B005B189B0009
S1133850D31808339B791A1C1E4B0A20191C1E4BC3
S11338609847022007211D4B9847194B1A683B1DA6
S11338701B78D31800221A70134B1B687A1D117819
S11338803A1D12788A1A9B1800221A70BB1D1A88D6
S1133890BB1D01321A800A4B1B78191C094A0B1CE8
S11338A09B005B189B00D31808339B88BA1D1288B1
S11338B09A4299D3BD4602B080BDC0461001002093
S11338C018010020A8A80000080100209CA90000FD
S11338D00C01002090000020F14600008147000008
S11338E080B582B000AFBB1D00221A8012E02F4BBE
S11338F01A68BB1D1B88D31855221A702C4B1A68E2
S1133900BB1D1B88D31855221A70BB1D1A88BB1DFA
S113391001321A80274B1B78191C274A0B1C9B0069
S11339205B189B00D31808335B88BA1D12889A422F
S1133930DDD3BB1D00221A800BE0204B1A68BB1D8F
S11339401B88D31800221A70BB1D1A88BB1D0132B4
S11339501A80184B1B78191C174A0B1C9B005B1808
S11339609B00D31808339B88DB089BB2BA1D1288CE
S11339709A42E2D3124B1B68AA221A700D4B1B7891
S1133980191C0D4A0B1C9B005B189B00D3180833B1
S11339909B791A1C0B4B0A20191C0B4B98470220CD
S11339A007210A4B9847BD4602B080BD0C01002098
S11339B00801002018010020A8A800001001002020
S11339C01401002090000020F1460000814700000F
S11339D080B582B000AFFB1D00221A7009E0FB1D08
S11339E01B78194A0021D154FB1D1A78FB1D0132A2
S11339F01A70FB1D1B789AB2144B1B78181C1449BF
S1133A00031C9B001B189B00CB1808339B88DB0806
S1133A109BB29A42E3D30D4B1B78191C0C4A0B1C26
S1133A209B005B189B00D31808339B791A1C064B28
S1133A300A20191C074B984702200721064B984778
S1133A40BD4602B080BDC046900000201801002091
S1133A50A8A80000F14600008147000080B500AF2F
S1133A603B4B1B78032B03D0394B1B78042B02D11F
S1133A70384B984701E0384B9847354B1B78022B5D
S1133A8010D1364B98471920354B98470B2000210D
S1133A90344B9847C820324B98470B200121314BB7
S1133AA0984704E0304B9847C8202D4B98470F2087
S1133AB000212E4B9847031C1A1C4023134001D1AC
S1133AC0F32342E00B200021294B984703200121D6
S1133AD0274B984705200321254B984705200121B2
S1133AE0234B984778201E4B984704208021204B75
S1133AF09847052000211E4B9847072001211C4BA5
S1133B0098473220164B98471A4B98472D2000218E
S1133B10144B98470B200021124B98470A20104B56
S1133B209847112000210F4B9847152000210D4B79
S1133B309847142001210B4B98479620084B98472F
S1133B4014200021074B98470023181CBD4680BD54
S1133B50180100207937000075360000D1390000C3
S1133B609D61000051250000E1380000514600002D
S1133B70814700006545000080B582B000AF021C9B
S1133B80FB1D1A70064BFA1D1278111C1F220A40E5
S1133B90012191400A1C1A60BD4602B080BDC04696
S1133BA000E100E080B582B000AF021CFB1D1A707A
S1133BB0074AFB1D1B78191C1F230B400121994048
S1133BC00B1C191C8023D150BD4602B080BDC046D9
S1133BD000E100E080B584B000AF78607B681B68CA
S1133BE0FB60FB685B7EDBB2DBB25BB2002B01DA0D
S1133BF0012300E00023181CBD4604B080BDC0466C
S1133C0080B586B000AF78607B681B683B613B6918
S1133C101B7EDBB2FB6000237B61FB680122134047
S1133C2003D07B69012213437B61FB6804221340A8
S1133C3003D07B69022213437B61FB680222134099
S1133C4003D07B69042213437B617B69181CBD4646
S1133C5006B080BD80B584B000AF786039607B6801
S1133C601B68BB600023FB603B680122134003D048
S1133C70FB6801221343FB603B680222134003D01C
S1133C80FB6804221343FB603B680422134003D007
S1133C90FB6802221343FB60FB68DAB2BB681A7646
S1133CA0BD4604B080BDC04680B584B000AF786026
S1133CB07B681B68FB60C0467B68181C0D4B9847EB
S1133CC0031EF9D117200C4B9847FB681B78DBB215
S1133CD002221343DAB2FB681A70C0467B68181CD0
S1133CE0044B9847031EF9D10023181CBD4604B0A9
S1133CF080BDC046D53B0000793B000080B584B050
S1133D0000AF78607B681B68FB6017200E4B9847F8
S1133D10C0467B68181C0D4B9847031EF9D1FB68FD
S1133D201B78DBB202229343DAB2FB681A70C046F6
S1133D307B68181C054B9847031EF9D10023181CF7
S1133D40BD4604B080BDC046A53B0000D53B000085
S1133D5080B584B000AF78607B681B68FB60C046A8
S1133D607B68181C0A4B9847031EF9D1FB681B7B20
S1133D70DBB202221343DAB2FB681A73C0467B68D3
S1133D80181C034B9847031EF9D1BD4604B080BDEF
S1133D90D53B000080B584B000AF786039607B68A3
S1133DA0181C184B9847021C0123134001D105230A
S1133DB023E07B681B68FB60C0467B68181C124BC1
S1133DC09847031EF9D1FB685B8B9AB23B681A8053
S1133DD07B68181C01210D4B98477B68181C094B04
S1133DE09847021C0423134006D07B68181C042146
S1133DF0064B98471E2300E00023181CBD4604B060
S1133E0080BDC046013C0000D53B0000553C00008D
S1133E1080B582B000AF78607B685B09181CBD4632
S1133E2002B080BD80B582B000AF78607B68DB01F2
S1133E30034A94466344181CBD4602B080BDC04684
S1133E400044004180B582B000AF78607B68181CE4
S1133E50054B9847031C181C044B9847031C181C5B
S1133E60BD4602B080BDC046113E0000253E0000A4
S1133E7080B582B000AF78607B681F2213400122B6
S1133E809A40131C181CBD4602B080BD80B500AF1B
S1133E90BD4680BD80B584B000AF786039607B6872
S1133EA0181C144B9847031CBB600023FB601BE0E9
S1133EB0FB6801229A40131C1A1C3B68134010D063
S1133EC0BA684021FB68D3185B181B78DBB2012267
S1133ED09343D8B2BA684021FB68D3185B18021C1C
S1133EE01A70FB680133FB60FB681F2BE0D9BD46E9
S1133EF004B080BD253E000090B583B000AF78606B
S1133F007B68181C074B9847041C7B68181C064BDD
S1133F109847031C201C191C044B9847BD4603B04A
S1133F2090BDC046113E0000713E0000953E000069
S1133F3080B584B000AF78600A1CFB1C1A707B68E3
S1133F40181C194B9847031CFB60FB1C1B78012BA6
S1133F5007D17B68181C154B9847021CFB689A60B4
S1133F600AE0FB1C1B78002B06D17B68181C0F4B46
S1133F709847021CFB685A607B68181C0C4B9847D6
S1133F80031CFA684021D21852181278D2B20221C6
S1133F900A43D0B2FA684021D3185B18021C1A7085
S1133FA0BD4604B080BDC046453E0000713E0000E1
S1133FB0113E000090B583B000AF78600A1CFB1C72
S1133FC01A70FB1C1B78002B0BD07B68181C0C4B45
S1133FD09847041C7B68181C0A4B9847031CA36170
S1133FE00AE07B68181C064B9847041C7B68181C65
S1133FF0044B9847031C6361BD4603B090BDC046A3
S1134000453E0000713E000080B500AF014B98476B
S1134010BD4680BD8D3E000080B582B000AF7860A3
S11340207B68181C024B9847BD4602B080BDC04651
S1134030F93E000080B582B000AF78600A1CFB1C1A
S11340401A707A68FB1C1B78101C191C024B9847C9
S1134050BD4602B080BDC046313F000080B582B08D
S113406000AF78600A1CFB1C1A707A68FB1C1B7872
S1134070101C191C024B9847BD4602B080BDC046B7
S1134080B53F000080B584B000AF78607B681B68E2
S1134090FB60FB68DB695A1E9341DBB2181CBD460A
S11340A004B080BD80B582B000AF78607B68012227
S11340B01A707B6800225A607B6800229A607B68D1
S11340C0C0229203DA607B6800221A747B680022A3
S11340D05A747B6801229A747B680122DA747B68C3
S11340E000221A757B682422002199547B681833B6
S11340F0181C00210C220A4B98477B68094A9A61D4
S11341007B6800229A627B680022DA627B68002264
S11341101A637B6800225A63BD4602B080BDC04664
S1134120539E0000A086010080B584B000AF786083
S11341307B681B68FB60C0467B68181C064B98476D
S1134140031EF9D1FB681B6802221A43FB681A603C
S1134150BD4604B080BDC0468540000080B584B033
S113416000AF78607B681B68FB60C0467B68181CE6
S1134170064B9847031EF9D1FB681B680222934340
S11341801A1CFB681A60BD4604B080BD854000005F
S113419080B584B000AF78607B681B68FB60FB6807
S11341A01B7EDBB21A1C022313405A1E9341DBB25E
S11341B0181CBD4604B080BD80B584B000AF7860E3
S11341C07B681B68FB60FB681B7EDBB21A1C012347
S11341D013405A1E9341DBB2181CBD4604B080BD87
S11341E080B584B000AF78600A1CBB1C1A807B6861
S11341F01B68FB607B68181C0A4B9847031C1A1C3D
S113420001235340DBB2002B01D0052306E0BB1C85
S11342101B88DB05DA0DFB689A620023181CBD4677
S113422004B080BDB941000080B584B000AF7860AF
S11342307B681B68FB60FB68DB7BDBB21A1C80239A
S113424013405A1E9341DBB2181CBD4604B080BD16
S113425080B582B000AF78607B6800221A707B68FA
S113426000229A707B6800229A807B6800229A71EF
S11342707B6800221A817B6800225A707B680022C6
S11342809A727B680022DA727B6800221A737B6858
S113429000229A737B6800225A737B6800221A7486
S11342A07B6800225A617B6800229A617B68002245
S11342B01A777B6800221A627B6800225A627B6844
S11342C000221A857B6800225A857B6800229A8521
S11342D0BD4602B080BDC04680B584B000AF7860F2
S11342E07B681B68FB60C0467B68181C074B9847BB
S11342F0031EF9D1FB681B889BB2022213439AB2B6
S1134300FB681A80BD4604B080BDC0462942000047
S113431080B584B000AF78607B681B68FB60C046E2
S11343207B68181C074B9847031EF9D1FB681B8850
S11343309BB2022293439AB2FB681A80BD4604B032
S113434080BDC0462942000080B584B000AF7860CB
S11343507B681B68FB60C0467B68181C044B98474D
S1134360031EF9D1FB6880225A71BD4604B080BD9A
S11343702942000080B584B000AF78607B681B6878
S1134380FB60C0467B68181C094B9847031EF9D193
S1134390FB6800221A71C0467B68181C044B9847BE
S11343A0031EF9D1FB6840225A71BD4604B080BD9A
S11343B02942000080B58EB000AF1B4B181C1B4B6C
S11343C098473B1D181C1A4B98473B1D03221A7033
S11343D03B1DC02292009A803B1D08229A703B1D0F
S11343E0802292011A813B1D00229A733B1D0022F8
S11343F09A620D4A0F493B1D101C1A1C0E4B98471C
S1134400094B181C0D4B9847074B181C00210C4BEB
S11344109847054B181C0B4B98470B4B00221A600E
S1134420BD460EB080BDC046302F00207D11000077
S11344305142000000300042650C0000D9420000E7
S1134440C9100000754300001C01002080B500AFB6
S1134450014B9847BD4680BDB543000080B500AF11
S1134460044B181C044B9847024B181C034B9847E9
S1134470BD4680BD302F0020494300001143000099
S113448080B500AF094B181C094B9847021C094B17
S1134490101CFA2291009847031C1A1C064B1A6040
S11344A0054B1B68181CBD4680BDC046302F00203C
S11344B029110000557700001C01002080B500AFD1
S11344C0BD4680BD80B58EB000AF184B1B78002B65
S11344D028D13B1C181C164B98473B1C80225202C7
S11344E0DA603B1C00229A603B1C124A9A613B1C16
S11344F0114A9A623B1C01225242DA623B1C0F4A67
S11345001A633B1C0E4A5A630E4A0F493B1C101C8B
S11345101A1C0E4B98470B4B181C0D4B9847034B1A
S113452001221A70BD460EB080BDC0462C01002089
S1134530A540000000127A000200100002001200E0
S11345400200130020010020000C0042955D0000D1
S11345502941000080B500AF014B9847BD4680BD9E
S1134560C544000080B500AF144B181C144B984789
S11345701320144B98471220124B98471020114BCC
S1134580984713200121104B9847122001210E4B0C
S11345909847102001210C4B9847132000210B4B06
S11345A0984710200021094B984712200021074BFF
S11345B09847074B00221A70BD4680BD2001002099
S11345C05D41000019400000354000005D400000DE
S11345D02C01002080B582B000AF021CFB1D1A70B4
S11345E0FB1D1B789BB20A4A101C191C094B9847E7
S11345F0C046074B181C084B9847031C1A1C012380
S11346005340DBB2002BF4D1BD4602B080BDC0469E
S113461020010020E14100009141000080B582B0FA
S113462000AF021CBB1D1A80BB1D1A880649BB1DA6
S1134630081C111C1A1C054B9847BB1D1B88DBB2B8
S1134640181CBD4602B080BD200100209D5E000004
S113465090B585B000AF021CFB1D1A70BB1D0A1C6F
S11346601A701D4B1B685A681C490A405A60112075
S113467000211B4B984770201A4B9847FB1D1B7851
S1134680181C184B984711200121154B9847164BBD
S1134690984711200021124B98477320114B9847DB
S11346A00D4B1B685A68802189020A435A60BB1D5E
S11346B01B789BB20F22BC18181C0C4B9847031C88
S11346C0237011200121064B98470F23FB181B78F8
S11346D0181CBD4605B090BD20010020FFFFFDFF62
S11346E05D400000D5450000BD4400001D460000AB
S11346F080B584B000AFB9607A600F23FB18021C48
S11347001A701A4B1B685A6819490A405A601120DA
S11347100021184B98477020174B98470F23FB181C
S11347201B78181C144B984711200121114B9847F2
S1134730124B9847112000210E4B984772200E4BC4
S1134740984706E0BB685A1CBA601B78181C0A4BD1
S113475098477B685A1E7A60002BF3D111200121FF
S1134760044B9847BD4604B080BDC04620010020DC
S1134770FFFFFDFF5D400000D5450000BD44000083
S113478080B582B000AF021CFB1D1A70BB1D0A1C51
S11347901A70154B1B685A6814490A405A60112054
S11347A00021134B98477020124B9847FB1D1B7830
S11347B0181C104B9847112001210D4B98470E4BA4
S11347C09847112000210A4B98477220094B9847BB
S11347D0BB1D1B78181C074B984711200121044B63
S11347E09847BD4602B080BD20010020FFFFFDFFB9
S11347F05D400000D5450000BD44000080B582B096
S113480000AF094B181C094B9847074ABB1D101CE5
S1134810191C074B9847031E052BF6D0BB1D1B889C
S1134820181CBD4602B080BD4C2F0020513D000035
S1134830953D000080B584B000AF00237B60002369
S11348403B60364B181C364B98470F23FB1800224D
S11348501A7008E0334B98470F23FB181A780F237C
S1134860FB1801321A700F23FB181B78092BF1D99E
S11348700023BB600F23FB1800221A700DE0294BA4
S11348809847031C1A1CBB689B18BB600F23FB18BA
S11348901A780F23FB1801321A700F23FB181B78A8
S11348A00F2BECD9BB68002B00DA0F331B11BB6054
S11348B01A4B181C1C4B98471C4BB8689847021C91
S11348C01B4B101C1B499847031C1A1C184B101C2B
S11348D019499847031C7B60184B78681849984716
S11348E0031C1A1C124B101C16499847031C1A1C53
S11348F0154B101C15499847031C1A1C0F4B1448E0
S1134900111C9847031C3B60124B38689847031CE2
S11349109BB21BB2181CBD4604B080BD4C2F0020B6
S1134920A93C0000FD470000FD3C0000818100001F
S1134930E17B00003333D33900002040457E000082
S1134940D578993F00007A4471790000EC512C41EC
S11349500000CA424181000080B58CB000AF3B1C0E
S1134960181C0E4B98473B1C00229A603B1C80226B
S113497092005A803B1C02225A703B1C12221A736A
S11349803B1C00221A71064A06493B1C101C1A1CC7
S1134990054B9847BD460CB080BDC04619020000C7
S11349A04C2F0020004000425508000080B500AFA5
S11349B0174B98472E200021164B984711200121B0
S11349C0144B984715200121124B98472D200121A3
S11349D0104B9847142001210E4B98470B200121BE
S11349E00C4B98472F2001210A4B98472C2001217A
S11349F0084B98470A200021064B98472F20012195
S1134A00054B98470B200021034B9847BD4680BDBA
S1134A1009400000354000005D40000080B500AF53
S1134A20114B98472D200021104B9847104B984765
S1134A30112000210D4B98472C2000210B4B984747
S1134A4015200021094B984714200021074B984753
S1134A500B200021054B9847064B9847064B002234
S1134A601A70BD4680BDC046AD4900005D400000DF
S1134A7059490000554500006C2F002080B584B0D2
S1134A8000AF021CFB1D1A700F23FB18FA1D1278CD
S1134A90D2091A700E23FB18FA1D127852091A70E3
S1134AA00D4BBB600F23FB181B78002B0FD10F237A
S1134AB0FB181B789B0010229446BC446344083BBB
S1134AC01A680E23FB181B78DB01D31800E00023BF
S1134AD0181CBD4604B080BD0044004180B582B0BE
S1134AE000AF021CFB1D1A70FB1D1B78181C034B26
S1134AF09847031C181CBD4602B080BD7D4A0000C7
S1134B0080B584B000AF021CFB1D1A70BB1D0A1CCB
S1134B101A70FB1D1B78181C0C4B9847031CFB6078
S1134B20FB1D1B781F22134001229A40131CBB60FB
S1134B30BB1D1B78002B03D0FB68BA689A6102E0A6
S1134B40FB68BA685A61BD4604B080BDDD4A000006
S1134B5080B500AF014B9847BD4680BD1D4A00009B
S1134B6080B586B000AFB9607A600F23FB18021CD1
S1134B701A701A4B9847031C1A1C1723FB181A7037
S1134B800F23FB181A781723FB181B785BB2101C31
S1134B90191C134B9847134B9847031EF42B11D140
S1134BA03E200021104B9847FA235B00181C0F4B42
S1134BB098473E2001210C4B9847FA235B00181CB0
S1134BC00A4B9847BA687B68101C191C084B984715
S1134BD0084B9847BD4606B080BDC0463548000026
S1134BE0C52700004D280000014B00009D61000016
S1134BF0BD3500005D3A000080B582B000AFBB4B0C
S1134C001B681B681B8C9BB21A1CB94B101C984761
S1134C10031C7B607B681F2B00D973E1B34B1B68BB
S1134C201A687B6808335B01D318DB79DBB23B601D
S1134C303B680322134000D189E07B6801229A403B
S1134C40131CDB431A1CAB4B1B681A40A94B1A609C
S1134C50A64B1B681A687B6808335B01D3180322D0
S1134C60DA71A24B1A68A8217B68D3185B189B7968
S1134C701A1C012313406AD07B68DAB29E4B1A7067
S1134C809A4B1B681B687A6808325201D35C032272
S1134C901340DBB2012B1FD1984A7B685B01D31808
S1134CA05B689B049B0C9BB21A1C934B5A80934ADF
S1134CB07B685B01D3185B689B0B9B049B0C9BB2CA
S1134CC01A1C8D4B9A808D4A7B685B01D3185A68F5
S1134CD0920B92035A602DE0884A7B685B01D318DB
S1134CE05B689B0B9B049B0C9BB21A1C824B5A80E7
S1134CF0824A7B685B01D3185B689B049B0C9BB264
S1134D001A1C7D4B9A807D4A7B685B01D3185A68D4
S1134D107B490A405A60784B5B88002B0AD1774A5A
S1134D207B685B01D3185B689B049B0C9BB21A1CC9
S1134D30714B5A806D4B1A687B6802331B01D31880
S1134D405A686A4B19686C4B081C191C90473B68DD
S1134D500422134013D07B6801229A40131CDB43C6
S1134D601A1C644B1B681A40624B1A605F4B1B6829
S1134D701A687B6808335B01D3180422DA713B6834
S1134D80082213403CD07B6801229A40131CDB4369
S1134D901A1C584B1B681A40564B1A60534B1B681D
S1134DA01A687B6808335B01D3180822DA714F4B09
S1134DB01A68A8217B68D3185B189B791A1C0223F4
S1134DC013401DD07B68DAB24B4B1A704B4A7B6898
S1134DD05B01D3180833DB889BB2DBB21F2213407C
S1134DE0DAB2454B5A70414B1A687B681B01D318E1
S1134DF024335A683D4B19683F4B081C191C9047D3
S1134E003B68102213403AD07B6801229A40131C5D
S1134E10DB431A1C374B1B681A40364B1A60334B62
S1134E201B681A687B6808335B01D3181022DA7197
S1134E302E4B1A68A8217B68D3185B189B791A1C1F
S1134E40042313401BD07B68DAB22B4B1A702B4A15
S1134E507B685B01D3185B689B0B9B049B0C9BB228
S1134E601A1C254B5A80214B1A687B681B01D318E6
S1134E7028335A681D4B1B68181C002190473B6857
S1134E802022134000D113E17B6801229A40131CB5
S1134E90DB431A1C174B1B681A40164B1A60134B42
S1134EA01B681A687B6808335B01D3182022DA7107
S1134EB00E4B1A68A8217B68D3185B189B791A1CBF
S1134EC00823134000D1F3E07B68DAB20A4B1A706E
S1134ED0064B1A687B681B01D3182C335A68034BA2
S1134EE01968054B081C191C9047E1E030010020AB
S1134EF0317900004801002034010020702F002087
S1134F00FF3F00F06C4B1B681B689B8B9BB23B60A4
S1134F103B680422134013D0674B1B681B680422B0
S1134F209A83654B1B68A5229B5C1A1C01231340C2
S1134F3006D0614B1B685A685F4B1B68181C90476E
S1134F403B680822134016D05C4B00221A605A4B6F
S1134F501B681B6808229A83574B1B68A5229B5C1D
S1134F601A1C0223134006D0534B1B689A68524BF9
S1134F701B68181C90473B684022134013D04E4BCB
S1134F801B681B6840229A834B4B1B68A5229B5CC1
S1134F901A1C1023134006D0474B1B685A69464B12
S1134FA01B68181C90473B682022134013D0424BC7
S1134FB01B681B6820229A833F4B1B68A5229B5CBD
S1134FC01A1C0823134006D03B4B1B681A693A4B42
S1134FD01B68181C90473B681022134013D0364BB3
S1134FE01B681B6810229A83334B1B68A5229B5CA9
S1134FF01A1C0423134006D02F4B1B68DA682E4B6F
S11350001B68181C90473B688022134016D02B4B1A
S113501000221A60284B1B681B6880229A83264B47
S11350201B68A5229B5C1A1C2023134006D0224B2C
S11350301B689A69204B1B68181C90473A688023A8
S11350405B00134017D01D4B00221A601A4B1B68DB
S11350501B68802252009A83174B1B68A5229B5C15
S11350601A1C4023134006D0134B1B68DA69124BF9
S11350701B68181C90473A6880239B00134017D084
S11350800E4B00221A600C4B1B681B688022920096
S11350909A83094B1B68A5229B5CDBB25BB2002B95
S11350A006DA054B1B681A6A034B1B68181C9047E9
S11350B0BD4602B080BDC04630010020480100203A
S11350C080B584B000AFCD4B1B681A680823FB1869
S11350D0128C1A800823FB181B88002B58D1C74B4D
S11350E01B681A68BB1D928B1A80C44B1A68AB23C9
S11350F05B00D35ABA1D128813409AB2BF4B196889
S1135100AA235B00C95A3B1D0A401A800023FB6096
S11351103AE0BB4BFA685200D35ABA1D12881340C6
S11351209BB2002B07D0B54B1B681B68B44AF968C7
S113513049008A5A9A83B24BFA685200D35A3A1DEC
S1135140128813409BB2002B1BD0FB68062B0CD19A
S1135150AC4B1B899BB21B095B055B0D9BB21A1CF4
S113516080235B001A40A84B1A60A44B1B68FA68A2
S11351702E329200D258A14B1968A34B081C191C5B
S11351809047FB680133FB60FB68062BC1DD3CE202
S11351900B23FB1800221A7031E20823FB181A882B
S11351A00B23FB181B781A41131C0122134000D156
S11351B01EE2924B1B681A680B23FB181B780833FA
S11351C05B01D318DB79DAB2BB1D1A808B4B1968EB
S11351D00B23FB181A78B0235B008A18D3181B78AA
S11351E09BB2BA1D128813409BB298B2834B1968C4
S11351F00B23FB181A78AC235B008A18D3181B788E
S11352009AB2031C13409AB23B1D1A80BB1D1B8823
S11352106022134059D0794B1B681A680B23FB1882
S11352201B7808335B01D318DB79DBB21A1C4023EB
S1135230134014D0714B1B681A680B23FB181B789E
S113524008335B01D3184022DA710B23FB181B7857
S1135250802252421343DAB26C4B9A711EE0674BC0
S11352601B681A680B23FB181B7808335B01D318DF
S1135270DB79DBB21A1C202313400FD05F4B1B6871
S11352801A680B23FB181B7808335B01D318202200
S1135290DA715E4B0B22BA1812789A713B1D1B8887
S11352A06022134010D0554B1A680B23FB181B784F
S11352B0DC211B01D3185B185A68504B1968534BF7
S11352C0081C191C9047A0E19FE1BB1D1B881022FC
S11352D0134038D0494B1B681A680B23FB181B7802
S11352E008335B01D3181022DA71444B19680B237D
S11352F0FB181A78B0235B008A18D3181B78102285
S11353001340DBB2002B1DD00B23FB181B783D4A46
S11353105B01D3185B689B049B0C9BB21A1C3B4B30
S11353201A80364B1A680B23FB181B78D8211B01F3
S1135330D3185B185A68314B1968344B081C191C74
S1135340904762E161E1BB1D1B880C22134000D130
S1135350C6E02A4B1B681A680B23FB181B7808331A
S11353605B01D318DB79DBB21A1C082313404FD03E
S1135370224B1B681A680B23FB181B7808335B014C
S1135380D3180822DA710B23FB181B781D4A5B0122
S1135390D31818339B78DBB21A1C0223134014D0A1
S11353A00B23FB181B780B22BA18127815495201EB
S11353B08A1818329278D2B202218A43D1B2114AA1
S11353C05B01D31818330A1C9A700B23FB181B7843
S11353D0802252421343DAB20C4B9A71074B1B687A
S11353E01A680B23FB181B7808335B01D318DB798D
S11353F0DBB21A1C022313405BD006E1300100200B
S1135400C0A90000702F00203C01002040010020B2
S11354107F4B1B681A680B23FB181B7808335B014E
S1135420D318DB79DBB21A1C0423134041D0784B28
S11354301B681A680B23FB181B7808335B01D3180D
S11354400422DA710B23FB181B78724A5B01D31810
S113545008339B78DBB21A1C0223134014D00B23AD
S1135460FB181B780B22BA1812786A4952018A1861
S113547008329278D2B202218A43D1B2654A5B01E2
S1135480D31808330A1C9A70634B0B22BA1812788B
S11354909A715F4B1B681A680B23FB181B7808333F
S11354A05B01D318DB79DBB21A1C0123134000D053
S11354B0ABE03B1D1B880C22134010D0544B1A68E0
S11354C00B23FB181B78D4211B01D3185B185A68D3
S11354D04F4B1968504B081C191C904795E094E0F9
S11354E0BB1D1B880322134000D181E0484B1B687D
S11354F01A680B23FB181B7808335B01D318DB797C
S1135500DBB21A1C0223134022D0414B1B681A68D9
S11355100B23FB181B7808335B01D3180222DA71C2
S11355200B23FB181B78802252421343DAB23A4B06
S11355309A710B23FB181B78364A5B01D31810337E
S11355405B689B049B0C9BB21A1C334B5A8039E05A
S11355502F4B1B681A680B23FB181B7808335B015D
S1135560D318DB79DBB21A1C012313402AD0284B51
S11355701B681A680B23FB181B7808335B01D318CC
S11355800122DA71244B0B22BA1812789A710B2378
S1135590FB181B781F4A5B01D3185B689B049B0CA8
S11355A09BB21A1C1C4B1A800B23FB181B78194A3C
S11355B05B01D3185B689B0B9B049B0C9BB21A1C6E
S11355C0154B9A803B1D1B88032213400FD0104BB0
S11355D01A680B23FB181B780D331B01D3185A6868
S11355E00B4B19680C4B081C191C90470DE00CE080
S11355F00B23FB181A780B23FB1801321A700B23A8
S1135600FB181B78072B00D8C7E5BD4604B080BD46
S113561030010020702F00204001002080B500AF31
S1135620074B1B681B681B78DBB2DB09DBB2002B62
S113563002D0044B984701E0034B9847BD4680BD18
S113564030010020F94B0000C150000080B582B049
S113565000AF78607B6880221A707B6800225A70E1
S11356607B6801229A707B680022DA70BD4602B022
S113567080BDC04680B584B000AF021CFB1D1A700B
S11356800F23FB18FA1D1278D2091A700E23FB1887
S1135690FA1D127852091A700D4BBB600F23FB18C8
S11356A01B78002B0FD10F23FB181B789B001022B3
S11356B09446BC446344083B1A680E23FB181B78C9
S11356C0DB01D31800E00023181CBD4604B080BDE4
S11356D00044004180B586B000AF021CFB1D1A7067
S11356E0FB1D1B78181C194B9847031C7B61FB1D81
S11356F01B781F2213403B617A6940213B69D31810
S11357005B181B78DBB21A1C0123134001D18023E0
S113571017E03B695B087A693021D3185B181B7862
S1135720DBB2FB603B690122134005D0FB68F02229
S113573013401B09DBB204E0FB68DBB20F22134009
S1135740DBB2181CBD4606B080BDC04675560000CD
S113575080B582B000AF78607B6800221A70BD46C5
S113576002B080BD80B582B000AF021C3960FB1D61
S11357701A70FB1D1B78012B0AD0022B0FD0002BB3
S113578014D10E4B0D4A91693A680A439A610FE0AD
S11357900A4B0A4AD1693A680A43DA6108E0074BBE
S11357A0064A116A3A680A431A6201E0172300E0C4
S11357B00023181CBD4602B080BDC0460004004052
S11357C080B500AF054B9B78DBB21A1C0223134053
S11357D05A1E9341DBB2181CBD4680BD0020004117
S11357E080B584B000AF78607B681B68FB60FB68A1
S11357F01B7EDBB21A1C012313405A1E9341DBB2F9
S1135800181CBD4604B080BD80B584B000AF78607C
S11358107B681B68FB60FB681B7EDBB21A1C0423DD
S113582013405A1E9341DBB2181CBD4604B080BD20
S113583080B584B000AF78600A1CBB1C1A807B68FA
S11358401B68FB607B68181C0A4B9847031C1A1CD6
S113585001235340DBB2002B01D0052306E0BB1C1F
S11358601B88DB05DA0DFB689A620023181CBD4611
S113587004B080BDE157000080B584B000AF78600B
S113588039607B681B68BB607B68181C1D4B98479C
S1135890031C1A1C01235340DBB2002B01D010233C
S11358A02CE00F23FB1800221A70BB685B8B9BB2A1
S11358B01A1C042313400BD00F23FB181E221A704A
S11358C0BB685B8B9BB2042213439AB2BB685A83B6
S11358D07B689B79012B08D1BB689B6A9BB2DB0573
S11358E0DB0D9AB23B681A8005E0BB689B6ADBB2A9
S11358F09AB23B681A800F23FB181B78181CBD460C
S113590004B080BD0958000090B593B000AF786032
S113591039607B681B687B637B681B683B631C2363
S1135920FB18181C864B98471C23FB1800225A703E
S11359303B681B78002B03D11C23FB1800229A70B0
S11359403B689A6A0C23FB181A603B68DA6A0C23DA
S1135950FB185A603B681A6B0C23FB189A603B686F
S11359605A6B0C23FB18DA604723FB1800221A70C9
S11359702CE04723FB181A780C23FB189200D35809
S11359803B643B6C002B09D13A6B4723FB181B7813
S1135990101C191C6B4B9847031C3B643B6C013374
S11359A00DD03B6CDAB21C23FB181A703B6C1B0C39
S11359B0DAB21C23FB18101C191C634B98474723AD
S11359C0FB181A784723FB1801321A704723FB1877
S11359D01B78032BCDD93B681A787B685A713B68D6
S11359E01A7C7B689A713B689A7C7B68DA713B68A5
S11359F01A7D7B681A720A23FB1800221A8000237E
S1135A00FB630023BB633B681B78012B2BD17B68B2
S1135A101B68181C4D4B9847031CFB62FB6A14332C
S1135A20BB62BB6ADBB2181C494B9847031C7B6200
S1135A303B6899692323FC187A6A0A23FB18081C1B
S1135A40111C1A1C434B9847031C23702323FB1877
S1135A501B78002B01D017236DE00A23FB181B8849
S1135A60DAB27B6B1A733B681B78002B1AD13B6844
S1135A709B69FB633B689B8BBB637B6B5B6A3A688C
S1135A80927F111C3A68D27F12040A431A437B6B3B
S1135A905A623B6820229B5C002B03D0BB6B4022E4
S1135AA01343BB633B685B68FA6B1343FB633B685C
S1135AB09B68FA6B1343FB633B68DB68FA6B134325
S1135AC0FB633B681B7C1A1CBB6B1343BB633B68C7
S1135AD05B7C002B03D1204B9847031E03D0FB6B48
S1135AE080221343FB633B689B7C002B04D0BB6B7D
S1135AF0802292021343BB633B68DB7C002B04D0FF
S1135B00BB6B802292001343BB633B681B7D002B5D
S1135B1004D0BB6B802292011343BB637B6B1A6876
S1135B20FB6B1A437B6B1A607B6B5A68BB6B1A4323
S1135B307B6B5A600023181CBD4613B090BDC04651
S1135B404D5600000117000089710000BD180000C7
S1135B50C16F0000F9150000C157000090B591B065
S1135B6000AF786039607B681B68FB627B681B68E8
S1135B70BB623B689A6A0C23FB181A603B68DA6ABA
S1135B800C23FB185A603B681A6B0C23FB189A60B1
S1135B903B685A6B0C23FB18DA603F23FB18002286
S1135BA01A7030E03F23FB181A780C23FB1892007C
S1135BB0D358BB63BB6B002B09D1BA6A3F23FB18D4
S1135BC01B78101C191C6F4B9847031CBB63BB6BE1
S1135BD0013300D110E0BB6B1B041C0CBB6B1B0C12
S1135BE0DBB2181C684B9847031C9C4204D07B68AA
S1135BF000221A601C23C0E03F23FB181A783F23BD
S1135C00FB1801321A703F23FB181B78032BC9D9E8
S1135C1013205E4B9847031C7B6200237B630023A5
S1135C203B6300233B623B681B78012B23D13B6819
S1135C3099691F23FC187A6A0A23FB18081C111C93
S1135C401A1C534B9847031C23701F23FB181B7803
S1135C50002B01D0172390E0FB6A1B7BDAB20A23E6
S1135C60FB181B88DBB29A4201D01C2385E07B6BB6
S1135C700C2213437B633B681B78002B29D13B68C0
S1135C809B697A6B13437B633B689B8B1A1C3B6B4E
S1135C9013433B633B689B7F1A1C3B68DB7F1B04FD
S1135CA013431A1C3B6A13433B62FB6A1A683B6A40
S1135CB09A4201D01C2360E03B6820229B5C002BAD
S1135CC003D03B6B402213433B637B6B082213439B
S1135CD07B633B685B687A6B13437B633B689B68BD
