:100000000C9446000C9450000C9450000C9450003A
:100010000C9450000C9450000C9450000C94500020
:100020000C9450000C9450000C9450000C94500010
:100030000C9450000C9450000C9450000C94500000
:100040000C9450000C9450000C9450000C945000F0
:100050000C9450000C9450000C9450000C945000E0
:100060000C9450000C9450000C9450000C945000D0
:100070000C9450000C9450000C9450000C945000C0
:100080000C9450000C9450000C94500011241FBE8E
:10009000CFEFD0E1DEBFCDBF0E9452000C948B00A9
:1000A0000C94000080EF87BB88BB20E680E290E4E0
:1000B00028BB3FEF49E658E1315040405040E1F75E
:1000C00000C0000018BA3FEF49E658E13150404007
:1000D0005040E1F700C0000088BB3FEF43ED50E324
:1000E000315040405040E1F700C0000098BB3FEF66
:1000F00047EA51E6315040405040E1F700C000006F
:1001000088BB3FEF43ED50E3315040405040E1F7B2
:0A01100000C00000CDCFF894FFCF2F
:00000001FF
