:020000020000FC
:0200000045C0F9
:02000400A4C096
:02000800BBC07B
:020078003DC089
:10008C000FEF0DBF00E10EBF00EF07BB00E001BB9F
:10009C0003E002BB00E40093990003E00093980096
:1000AC0008E900939A0002E000939B000EE0009395
:1000BC009D000AE000936A0003E009BF40E648BBDC
:1000CC000CD0552777277894FFCF00919B0005FF24
:1000DC00FCCF05E500939C00089500919B0007FF61
:1000EC00089500919C00F9CFF894733049F1009178
:1000FC009C000535A1F4603019F0662755271FC008
:10010C0000E908BB05E014E64ED00A95E1F703E0E0
:10011C0008BF73957330A1F0E0DF48BB10C007FD3A
:10012C0002C0502F0CC05A3151F4083F21F4CDDFDE
:10013C0061E0552704C0402F440F48BB55277894E5
:10014C001895F8947330A9F00F931F930FB70F9372
:10015C0000E008BB14E627D000E208BB14E623D06D
:10016C0048BB03E008BFB9DF0F910FBF1F910F9180
:10017C0078941895F8947330A9F00F931F930FB7D8
:10018C000F9300E008BB14E60ED000E408BB14E6A5
:10019C000AD048BB03E008BFA0DF0F910FBF1F912F
:1001AC000F91789418951F932F933F9330EE2DEE6B
:1001BC002A95F1F73A95D9F71A95C1F73F912F91F6
:0401CC001F910895E2
:00000001FF
