:020000020000FC
:0200000045C0F9
:10008C000FEF0DBF00E10EBF08E001BB03EF02BB99
:10009C0000E40093990003E00093980008E10093BA
:1000AC009A0002E000939B000EE000939D0000B3C9
:1000BC0000FF1CD001FF23D007FF2AD006FF31D050
:1000CC0005FF38D004FF3FD01FE046D0F0CF0091A1
:1000DC009B0005FFFCCF0AE100939C000895009162
:1000EC009B0005FFFCCF50939C00089500919B0052
:1000FC0005FFFCCFECDF50EBF2DF0FEF0895009122
:10010C009B0005FFF3CFE3DF50E8E9DF0FEF089525
:10011C0000919B0005FFEACFDADF50E9E0DF0FEF3B
:10012C00089500919B0005FFE1CFD1DF50EAD7DFA6
:10013C000FEF089500919B0005FFD8CFC8DF58EC56
:10014C00CEDF0FEF089500919B0005FFFCCFBFDFC2
:10015C0058EFC5DF0FEF08951F932F933F9330EEA9
:10016C002DEE2A95F1F73A95D9F71A95C1F73F91EB
:06017C002F911F91089570
:00000001FF
