:020000020000FC
:0200000045C0F9
:10008C000FEF0DBF00E10EBF2224EEE8F2E0C0E15D
:10009C00D1E00591099305910993E0E9F2E0C2E101
:1000AC00D1E0059109930591099300000E948E00FF
:1000BC000000E2E9F2E0C0E3D1E00591099305917B
:1000CC000993E4E9F2E0C2E3D1E0059109930591CB
:1000DC00099300000E94B4000000E6E9F2E0C0E5DC
:1000EC00D1E0059109930591099305910993EAE9EA
:1000FC00F2E0C3E5D1E005910993059109930591CF
:10010C00099300000E94D700000000000000FFCF00
:10011C00AF93BF93CF93DF93EF93FF933F924F92A5
:10012C005F926F92A0E1B1E0C2E1D1E0E0E2F1E0D8
:10013C003D904990340C5C906880561C4424441CBF
:10014C003192519240826F905F904F903F90FF910F
:10015C00EF91DF91CF91BF91AF910895AF93BF9382
:10016C00CF93DF93EF93FF933F924F925F926F92F7
:10017C00A0E3B1E0C2E3D1E0E0E4F1E03D904990CE
:10018C0034185C9068805608319251926F905F9051
:10019C004F903F90FF91EF91DF91CF91BF91AF9135
:1001AC0008953F924F921F920F922F92BF93AF934D
:1001BC00DF93CF93FF93EF931F932F932224C3E5E9
:1001CC00D1E0E0E6F1E013E0A0E5B1E023E03D9002
:1001DC004880349C31904190030C141C3080321CAC
:1001EC0030821292029231962A9589F73297219693
:1001FC001A9551F72F911F91EF91FF91CF91DF91AC
:10020C00AF91BF912F900F901F904F903F900895FA
:10021C0008953F924F921F920F922F92BF93AF93DC
:10022C00DF93CF93FF93EF931F932F932224C2E07E
:10023C00D1E0E4E0F1E012E0A0E0B1E022E03D909A
:10024C004880349C31904190030C141C3080321C3B
:10025C0030821292029231962A9589F73197219623
:10026C001A9551F72F911F91EF91FF91CF91DF913B
:10027C00AF91BF912F900F901F904F903F9008958A
:10028C000895FFA277F48AF0CD4BFFFFFF00FFFF2C
:08029C00FF0051FDFF1EFFFFF2
:00000001FF
