:100000000C9446000C945D000C945D000C945D0013
:100010000C945D000C945D000C945D000C945D00EC
:100020000C945D000C945D000C945D000C945D00DC
:100030000C945D000C945D000C945D000C945D00CC
:100040000C945D000C945D000C945D000C945D00BC
:100050000C945D000C945D000C945D000C945D00AC
:100060000C945D000C945D000C945D000C945D009C
:100070000C945D000C945D000C945D000C945D008C
:100080000C945D000C945D000C945D0011241FBE67
:10009000CFEFD0E1DEBFCDBF11E0A0E0B1E0E0EBFB
:1000A000F1E000E00BBF02C007900D92A630B1074F
:1000B000D9F70E945F000C94D6000C940000BC9A03
:1000C000BD9ABF9ABE9A8998919A8898909AC59A33
:1000D000C69AC498C79880B3827080BB90B3917061
:1000E00090BB2FEF39EF40E0215030404040E1F726
:1000F00000C00000911138C0811116C08FEF99E641
:1001000028E1815090402040E1F700C00000C598F0
:10011000C6983FEF44E38CE0315040408040E1F727
:1001200000C00000C69A1EC09FEF29E638E191503A
:1001300020403040E1F700C00000C598C6984FEF5E
:1001400084E39CE0415080409040E1F700C0000013
:10015000C69A2FEF34E34CE0215030404040E1F7A5
:1001600000C00000C59AB7CF8111B5CF8FEF99E6D7
:1001700028E1815090402040E1F700C00000C59880
:10018000C6983FEF44E38CE0315040408040E1F7B7
:1001900000C00000C59A9FEF24E33CE0915020404E
:1001A0003040E1F700C00000C69A95CFF894FFCF29
:0601B0001400FA00F40146
:00000001FF
