:020000020000FC
:0200000045C0F9
:0200040064C0D6
:020008006EC0C8
:02000C007AC0B8
:0200100086C0A8
:10008C000FEF0DBF00E10EBF0FEF07BB00E001BB90
:10009C000FE002BB0AEA00936A000FE009BF0FE70A
:1000AC0003BF0DE705BD00E608BB40E0789406B33E
:1000BC0050EF0523042B08BB51E1459F01BE03BC47
:1000CC00F6CFF8941F930F934FE01FE02ED00FE064
:1000DC0008BF0F911F9178941895F8940F931F9364
:1000EC000FE0401343951FE020D00FE008BF1F9195
:1000FC000F9178941895F8940F931F9300E0401388
:10010C004A951FE012D00FE008BF1F910F91789411
:10011C001895F8941F930F9340E01FE006D00FE062
:10012C0008BF0F911F91789418951F932F933F93AD
:10013C0030EE2DEE2A95F1F73A95D9F71A95C1F7CD
:08014C003F912F911F910895CE
:00000001FF
