:020000020000FC
:0200000045C0F9
:0800040057D018956CD0189537
:10008C000CBD0FEF0DBF00E10EBF00EF07BB00E092
:10009C0001BB03E002BB0AE000936A0003E009BF66
:1000AC00789400E608BBFDCFF8940F931F930FB71D
:1000BC000F9300E008BB14E625D000E208BB14E661
:1000CC0021D000E608BB03E008BF0F910FBF1F91C2
:1000DC000F9178940895F8940F931F930FB70F9383
:1000EC0000E008BB14E60ED000E408BB14E60AD00E
:1000FC0000E608BB03E008BF0F910FBF1F910F91E3
:10010C00789408951F932F933F9330EE2DEE2A95FC
:10011C00F1F73A95D9F71A95C1F73F912F911F91A5
:02012C00089534
:00000001FF
